:020000040800F2
:1000000000000220B53600086516000867160008D3
:10001000691600086B1600086D1600080000000045
:100020000000000000000000000000006F16000843
:10003000711600080000000073160008751600080D
:1000400005370008053700080537000805370008A0
:100050000537000805370008053700080537000890
:100060000537000805370008053700080537000880
:100070000537000805370008053700080537000870
:100080000537000805370008053700087D16000809
:100090008D1600089D160008AD16000805370008EB
:1000A0000537000805370008053700080537000840
:1000B000BD16000805370008053700080537000899
:1000C0000537000805370008053700080537000820
:1000D0000537000805370008053700080537000810
:1000E0000537000805370008053700080537000800
:1000F00005370008053700080537000805370008F0
:1001000005370008053700080537000805370008DF
:1001100005370008053700080537000805370008CF
:1001200005370008053700080537000805370008BF
:1001300005370008053700080537000805370008AF
:10014000053700080537000805370008053700089F
:10015000053700080537000805370008053700088F
:10016000053700080537000805370008053700087F
:1001700005370008053700080537000800000000B3
:080180000537000805370008EF
:1001900010B5054C237833B9044B13B10448AFF3C1
:1001A00000800123237010BD7000002000000000BB
:1001B0007040000808B5034B1BB103490348AFF377
:1001C000008008BD0000000074000020704000089E
:1001D000034613F8012B002AFBD1181A0138704787
:1001E00001F0FF01102A2BDB10F0070F08D010F8E8
:1001F000013B013A8B422DD010F0070F42B3F6D1EC
:10020000F0B441EA012141EA014122F007047FF004
:1002100000070023F0E80256083C85EA010586EA5B
:10022000010685FA47F5A3FA87F586FA47F6A5FA97
:1002300087F68EB9EED1F0BC01F0FF0102F00702A3
:1002400032B110F8013B013A83EA010313B1F8D14E
:100250000020704701387047002D06BF354603382F
:10026000073815F0010F07D1013015F4807F02BF68
:10027000013015F4C03F0130F0BC0138704700BFB9
:1002800081F0004102E000BF83F0004330B54FEA47
:1002900041044FEA430594EA050F08BF90EA020FB4
:1002A0001FBF54EA000C55EA020C7FEA645C7FEA47
:1002B000655C00F0E2804FEA5454D4EB5555B8BF6A
:1002C0006D420CDD2C4480EA020281EA030382EADB
:1002D000000083EA010180EA020281EA0303362D6D
:1002E00088BF30BD11F0004F4FEA01314FF4801C40
:1002F0004CEA113102D0404261EB410113F0004F52
:100300004FEA03334CEA133302D0524263EB430308
:1003100094EA050F00F0A780A4F10104D5F1200EA6
:100320000DDB02FA0EFC22FA05F2801841F1000101
:1003300003FA0EF2801843FA05F359410EE0A5F1D5
:1003400020050EF1200E012A03FA0EFC28BF4CF006
:10035000020C43FA05F3C01851EBE37101F00045BC
:1003600007D54FF0000EDCF1000C7EEB00006EEBC9
:100370000101B1F5801F1BD3B1F5001F0CD3490853
:100380005FEA30004FEA3C0C04F101044FEA4452AA
:1003900012F5800F80F09A80BCF1004F08BF5FEA31
:1003A000500C50F1000041EB045141EA050130BD11
:1003B0005FEA4C0C404141EB0101013C28BFB1F523
:1003C000801FE9D291F0000F04BF01460020B1FA6E
:1003D00081F308BF2033A3F10B03B3F120020CDA41
:1003E0000C3208DD02F1140CC2F10C0201FA0CF01F
:1003F00021FA02F10CE002F11402D8BFC2F1200C84
:1004000001FA02F120FA0CFCDCBF41EA0C01904039
:10041000E41AA2BF01EB0451294330BD6FEA040482
:100420001F3C1CDA0C340EDC04F11404C4F120026D
:1004300020FA04F001FA02F340EA030021FA04F37F
:1004400045EA030130BDC4F10C04C4F1200220FAD6
:1004500002F001FA04F340EA0300294630BD21FA14
:1004600004F0294630BD94F0000F83F4801306BFDA
:1004700081F480110134013D4EE77FEA645C18BFCE
:100480007FEA655C29D094EA050F08BF90EA020F65
:1004900005D054EA000C04BF1946104630BD91EA5D
:1004A000030F1EBF0021002030BD5FEA545C05D160
:1004B0004000494128BF41F0004130BD14F580049F
:1004C0003CBF01F5801130BD01F0004545F0FE4113
:1004D00041F470014FF0000030BD7FEA645C1ABF48
:1004E000194610467FEA655C1CBF0B46024650EA7F
:1004F000013406BF52EA033591EA030F41F40021AB
:1005000030BD00BF90F0000F04BF0021704730B530
:100510004FF4806404F132044FF000054FF0000105
:1005200050E700BF90F0000F04BF0021704730B5C6
:100530004FF4806404F1320410F0004548BF40429B
:100540004FF000013EE700BF42004FEAE2014FEAF0
:1005500031014FEA02701FBF12F07F4393F07F4FCB
:1005600081F06051704732F07F4208BF704793F0CE
:100570007F4F04BF41F40021704730B54FF46074E1
:1005800001F0004521F000411CE700BF50EA0102E4
:1005900008BF704730B54FF000050AE050EA01028D
:1005A00008BF704730B511F0004502D5404261EBFD
:1005B00041014FF4806404F132045FEA915C3FF43E
:1005C000D8AE4FF003025FEADC0C18BF03325FEADB
:1005D000DC0C18BF033202EBDC02C2F1200300FA8C
:1005E00003FC20FA02F001FA03FE40EA0E0021FAB1
:1005F00002F11444BDE600BF70B54FF0FF0C4CF49F
:10060000E06C1CEA11541DBF1CEA135594EA0C0F50
:1006100095EA0C0F00F0DEF82C4481EA030621EA8B
:100620004C5123EA4C5350EA013518BF52EA0335C6
:1006300041F4801143F4801338D0A0FB02CE4FF078
:100640000005E1FB02E506F00042E0FB03E54FF0A8
:100650000006E1FB03569CF0000F18BF4EF0010EA0
:10066000A4F1FF04B6F5007F64F5407404D25FEA9C
:100670004E0E6D4146EB060642EAC62141EA55514F
:100680004FEAC52040EA5E504FEACE2EB4F1FD0C91
:1006900088BFBCF5E06F1ED8BEF1004F08BF5FEA0F
:1006A000500E50F1000041EB045170BD06F00046C1
:1006B00046EA010140EA020081EA0301B4EB5C046E
:1006C000C2BFD4EB0C0541EA045170BD41F4801166
:1006D0004FF0000E013C00F3AB8014F1360FDEBF8B
:1006E000002001F0004170BDC4F10004203C35DA67
:1006F0000C341BDC04F11404C4F1200500FA05F3EA
:1007000020FA04F001FA05F240EA020001F000428A
:1007100021F0004110EBD37021FA04F642EB060100
:100720005EEA430E08BF20EAD37070BDC4F10C042A
:10073000C4F1200500FA04F320FA05F001FA04F2EE
:1007400040EA020001F0004110EBD37041F10001DA
:100750005EEA430E08BF20EAD37070BDC4F12005E5
:1007600000FA05F24EEA020E20FA04F301FA05F24D
:1007700043EA020321FA04F001F0004121FA04F2F5
:1007800020EA020000EBD3705EEA430E08BF20EAC5
:10079000D37070BD94F0000F0FD101F000464000FF
:1007A00041EB010111F4801F08BF013CF7D041EA81
:1007B000060195F0000F18BF704703F00046520085
:1007C00043EB030313F4801F08BF013DF7D043EA56
:1007D0000603704794EA0C0F0CEA135518BF95EA0C
:1007E0000C0F0CD050EA410618BF52EA4306D1D193
:1007F00081EA030101F000414FF0000070BD50EAB2
:10080000410606BF1046194652EA430619D094EA3B
:100810000C0F02D150EA013613D195EA0C0F05D125
:1008200052EA03361CBF104619460AD181EA030179
:1008300001F0004141F0FE4141F470014FF0000031
:1008400070BD41F0FE4141F4780170BD70B54FF0CC
:10085000FF0C4CF4E06C1CEA11541DBF1CEA13554C
:1008600094EA0C0F95EA0C0F00F0A7F8A4EB05042E
:1008700081EA030E52EA03354FEA013100F0888025
:100880004FEA03334FF0805545EA131343EA1263EE
:100890004FEA022245EA111545EA10654FEA0026A3
:1008A0000EF000419D4208BF964244F1FD0404F55C
:1008B000407402D25B084FEA3202B61A65EB0305B8
:1008C0005B084FEA32024FF480104FF4002CB6EB75
:1008D000020E75EB030E22BFB61A754640EA0C00F5
:1008E0005B084FEA3202B6EB020E75EB030E22BF35
:1008F000B61A754640EA5C005B084FEA3202B6EB76
:10090000020E75EB030E22BFB61A754640EA9C0034
:100910005B084FEA3202B6EB020E75EB030E22BF04
:10092000B61A754640EADC0055EA060E18D04FEAC2
:10093000051545EA16754FEA06164FEAC30343EA62
:1009400052734FEAC2025FEA1C1CC0D111F4801F2F
:100950000BD141EA00014FF000004FF0004CB6E728
:1009600011F4801F04BF01430020B4F1FD0C88BFC7
:10097000BCF5E06F3FF6AFAEB5EB030C04BFB6EBD2
:10098000020C5FEA500C50F1000041EB045170BDC5
:100990000EF0004E4EEA113114EB5C04C2BFD4EBF2
:1009A0000C0541EA045170BD41F480114FF0000E76
:1009B000013C90E645EA060E8DE60CEA135594EAF2
:1009C0000C0F08BF95EA0C0F3FF43BAF94EA0C0FF5
:1009D0000AD150EA01347FF434AF95EA0C0F7FF46A
:1009E00025AF104619462CE795EA0C0F06D152EABE
:1009F00003353FF4FDAE1046194622E750EA4106A2
:100A000018BF52EA43067FF4C5AE50EA41047FF4B2
:100A10000DAF52EA43057FF4EBAE12E74FEA410215
:100A2000B2F1E04324BFB3F5001CDCF1FE5C0DD94C
:100A300001F0004C4FEAC0024CEA5070B2F1004F96
:100A400040EB830008BF20F00100704711F0804F99
:100A500021D113F13872BCBF01F00040704741F45E
:100A600080114FEA5252C2F11802C2F1200C10FA62
:100A70000CF320FA02F018BF40F001004FEAC12346
:100A80004FEAD32303FA0CFC40EA0C0023FA02F3EA
:100A90004FEA4303CCE77FEA625307D150EA0133C0
:100AA0001EBF4FF0FE4040F44000704701F0004090
:100AB00040F0FE4040F40000704700BF53B94AB90F
:100AC000002908BF00281CBF4FF0FF314FF0FF3056
:100AD00000F074B9ADF1080C6DE904CE00F006F831
:100AE000DDF804E0DDE9022304B070472DE9F047AA
:100AF000089D04468E46002B4DD18A42944669D902
:100B0000B2FA82F252B101FA02F3C2F1200120FAE4
:100B100001F10CFA02FC41EA030E94404FEA1C4832
:100B2000210CBEFBF8F61FFA8CF708FB16E341EA2E
:100B3000034306FB07F199420AD91CEB030306F1B4
:100B4000FF3080F01F81994240F21C81023E6344D5
:100B50005B1AA4B2B3FBF8F008FB103344EA034479
:100B600000FB07F7A7420AD91CEB040400F1FF338E
:100B700080F00A81A74240F207816444023840EACB
:100B80000640E41B00261DB1D4400023C5E9004304
:100B90003146BDE8F0878B4209D9002D00F0EF8087
:100BA0000026C5E9000130463146BDE8F087B3FABA
:100BB00083F6002E4AD18B4202D3824200F2F980A2
:100BC000841A61EB030301209E46002DE0D0C5E9A5
:100BD000004EDDE702B9FFDEB2FA82F2002A40F0F1
:100BE0009280A1EB0C014FEA1C471FFA8CFE0126F4
:100BF000200CB1FBF7F307FB131140EA01410EFB98
:100C000003F0884208D91CEB010103F1FF3802D23E
:100C1000884200F2CB804346091AA4B2B1FBF7F038
:100C200007FB101144EA01440EFB00FEA64508D95B
:100C30001CEB040400F1FF3102D2A64500F2BB8098
:100C40000846A4EB0E0440EA03409CE7C6F12007E7
:100C5000B34022FA07FC4CEA030C20FA07F401FA2D
:100C600006F31C43F9404FEA1C4900FA06F3B1FBB6
:100C7000F9F8200C1FFA8CFE09FB181140EA01411B
:100C800008FB0EF0884202FA06F20BD91CEB0101B8
:100C900008F1FF3A80F08880884240F28580A8F110
:100CA00002086144091AA4B2B1FBF9F009FB101162
:100CB00044EA014100FB0EFE8E4508D91CEB010100
:100CC00000F1FF346CD28E456AD90238614440EAA3
:100CD0000840A0FB0294A1EB0E01A142C846A64623
:100CE00056D353D05DB1B3EB080261EB0E0101FAAC
:100CF00007F722FA06F3F1401F43C5E90071002609
:100D00003146BDE8F087C2F12003D8400CFA02FC5E
:100D100021FA03F3914001434FEA1C471FFA8CFE6E
:100D2000B3FBF7F007FB10360B0C43EA064300FB5E
:100D30000EF69E4204FA02F408D91CEB030300F1FC
:100D4000FF382FD29E422DD9023863449B1B89B2B3
:100D5000B3FBF7F607FB163341EA034106FB0EF33C
:100D60008B4208D91CEB010106F1FF3816D28B42E9
:100D700014D9023E6144C91A46EA004638E72E46B5
:100D8000284605E70646E3E61846F8E64B45A9D2AD
:100D9000B9EB020864EB0C0E0138A3E74646EAE71C
:100DA000204694E74046D1E7D0467BE7023B6144CA
:100DB00032E7304609E76444023842E7704700BF33
:100DC00030B58BB0002405940694079408940994D8
:100DD0000094234B1A6B42F080021A631A6B02F0E4
:100DE00080020092009A01941A6B42F010021A637A
:100DF0001A6B02F010020192019A02941A6B42F0EF
:100E000004021A631A6B02F004020292029A03941B
:100E10001A6B42F001021A631A6B02F0010203928C
:100E2000039A04941A6B42F002021A631B6B03F0DC
:100E300002030493049B0B4D22464FF42051284695
:100E400001F0D0FC4FF4205305930123069307943F
:100E5000089405A9284601F0D3FB0BB030BD00BFB4
:100E6000003802400010024008B507EE900AF8EE84
:100E7000677A17EE900AFFF767FB07A3D3E9002311
:100E8000FFF7BAFB06A3D3E90023FFF7DFFCFFF768
:100E9000C5FD00EE100A08BD6666666666660A4015
:100EA0000000000000FEAF4008B5FFF7DDFF10EEC8
:100EB000100AFFF749FB0022134BFFF7E5F910A3D7
:100EC000D3E90023FFF7C2FC0022104BFFF794FB8D
:100ED000FFF7A4FD00EE100AB5EEC00AF1EE10FA1D
:100EE00009D4DFED0B7AB4EEE70AF1EE10FA01DD7A
:100EF000B0EE670A08BD9FED070AF2E7AFF3008086
:100F0000C3F5285C8FC203400000E03F0000594059
:100F10000000C8420000000070B52DED028B424B6E
:100F200093ED008A414BD3ED007A38EE678A404B4F
:100F300083ED008A18EE100AFFF706FB38A3D3E909
:100F40000023FFF759FB04460D463A4E3068FFF781
:100F5000FBFA22462B46FFF799F9FFF75FFD07EEF4
:100F6000900A30609FED347AF4EEC77AF1EE10FA11
:100F700001DD86ED007A2F4B93ED007ADFED2F7ABD
:100F8000B4EEE77AF1EE10FA01D5C3ED007A2C4CFD
:100F9000D4ED007A78EE677A17EE900AFFF7D4FA6C
:100FA0001FA3D3E90023FFF751FCFFF737FD07EE3E
:100FB000100A244B1860244BD3ED007A68EE277A90
:100FC000224BD3ED006A1B4B93ED006A66EE866AF6
:100FD00077EEA67A1E4BD3ED006A27EE267A77EEDF
:100FE000877A1C4BC3ED007A84ED008A9FED1A7A54
:100FF000F4EEC77AF1EE10FA01DD83ED007A154BBD
:1010000093ED007ADFED157AB4EEE77AF1EE10FA9F
:1010100001D5C3ED007ABDEC028B70BDAFF300804B
:10102000FCA9F1D24D62503FD0010020AC0100205C
:10103000A0000020A401002000007A4400007AC42F
:10104000B00100209C0000209400002090000020AF
:101050008C000020A80100200000C8420000C8C287
:1010600010B52DED028BB0EE408AB5EEC00AF1EE60
:1010700010FA16DCB5EEC00AF1EE10FA2DD4244CAD
:1010800000224FF40061204601F0ACFB00224FF437
:101090000051204601F0A6FB1E4B1B6800225A633C
:1010A00018E01B4C01224FF40061204601F09AFB2E
:1010B00000224FF40051204601F094FBB2EE040AE6
:1010C00028EE008A134B1A68BCEEC88A18EE103A54
:1010D0009BB25363BDEC028B10BD0D4C00224FF44C
:1010E0000061204601F07EFB01224FF400512046B2
:1010F00001F078FBB2EE040A28EE408A054B1A682C
:10110000BCEEC88A18EE103A9BB25363E2E700BF08
:1011100000100240CC00002010B50446FFF758F83C
:101120004FF0FF3382B22146014802F000FA10BDB1
:101130005C01002010B58EB00DF1040C0A4C0FCCF0
:10114000ACE80F0094E80700ACE803008CF800203E
:1011500001A8FFF73DF84FF0FF3382B201A9034821
:1011600002F0E5F90EB010BD884000085C010020D7
:1011700010B58EB00DF1040C0A4C0FCCACE80F008A
:1011800094E80700ACE803008CF8002001A8FFF702
:101190001FF84FF0FF3382B201A9034802F0C7F9EC
:1011A0000EB010BDA44000085C01002010B58EB048
:1011B0000DF1040C0A4C0FCCACE80F0094E80700CA
:1011C000ACE803008CF8002001A8FFF701F84FF00D
:1011D000FF3382B201A9034802F0A9F90EB010BD95
:1011E000C04000085C01002000B52DED048B9FB0CD
:1011F0001DAB444A002100F0E9FC40B9414B1B689B
:10120000B3F5807F08D040F2011293421ED01FB088
:10121000BDEC048B5DF804FB9DF875209DF87430DF
:1012200043EA0223384A13809DF877109DF8762010
:1012300042EA012235490A800092354A502109A824
:1012400002F094FA09A8FFF767FFE0E79DF8743011
:1012500009EE103AB8EE499A2E4B83ED009A9DF8AC
:10126000753007EE103AB8EE477A2B4981ED007AD7
:101270009DF8763008EE903AF8EE688A274AC2ED7B
:10128000008A9DF8773007EE903AF8EE677A244BA3
:10129000C3ED007AF2EE046A27EE267A9FED218AEA
:1012A00027EE087A81ED007A68EEA68A68EE888AD1
:1012B000C2ED008A67EEA67A27EE888A83ED008A5F
:1012C00017EE100AFFF740F9CDE9060118EE900A73
:1012D000FFF73AF9CDE9040118EE100AFFF734F9E7
:1012E000CDE9020119EE100AFFF72EF9CDE9000150
:1012F0000D4A502109A802F039FA09A8FFF70CFF9E
:1013000085E700BFB4010020980000209A0000206B
:10131000DC400008D0010020900000209400002054
:101320008C0000200000803BF840000808B502F067
:10133000A7F908BD72B6FEE770B58AB00125089519
:101340000024059404944FF40053009301940293F5
:101350000394069407950E4E6946304600F06CFBE8
:1013600005950695079542F2200300930194029398
:101370000394049408956946304600F05DFB08B973
:101380000AB070BD0348FFF7C7FEFFF7D3FF00BFE9
:10139000A40000202841000808B50C480C4B03604D
:1013A0000823436000238360C3604FF4A0220261DE
:1013B00043610376012242768376C27603774377D0
:1013C00000F094FA00B908BDFFF7B4FFA4000020B4
:1013D0000064004010B592B0002410941194099458
:1013E0000A940B940C940D940E940F942022214691
:1013F00001A802F0B3F92148214B03603F23436069
:10140000846040F2E733C36004614461846101F0A9
:1014100001FD002829D100231093119310A917482A
:1014200001F0E8FE18BB6023099300220A920B9298
:101430000C920D920E920F9209A9104801F04EFDE8
:10144000B8B90023019302930393049305934FF4D7
:1014500000520692089301A9084801F011FF50B903
:10146000064800F0DDF912B010BDFFF763FFFFF78B
:1014700061FFFFF75FFFFFF75DFF00BFCC000020BB
:101480000000014000B587B000230293039304934A
:1014900005930093019314484FF08042026040F29C
:1014A0007F224260836040F2E732C2600361836161
:1014B00001F084FC90B94FF48053029302A90A48CA
:1014C00001F087FD60B90023009301936946064847
:1014D00001F090FE30B907B05DF804FBFFF72AFF7A
:1014E000FFF728FFFFF726FF1401002008B50A4880
:1014F0000A4B03604FF4E133436000238360C36011
:1015000003610C2242618361C36101F0E0FF00B915
:1015100008BDFFF70FFF00BF5C0100200014014071
:1015200000B595B03022002108A802F017F9002379
:101530000393049305930693079301931E4A116C3A
:1015400041F080511164126C02F080520192019AB4
:1015500002931A4A116841F480411160126802F442
:1015600080420292029A0222089201210B911021DC
:101570000C910E920F930823109340231193129213
:101580000423139308A800F017FD80B90F230393D9
:1015900002210491002305934FF480520692079391
:1015A00003A800F057FF20B915B05DF804FBFFF762
:1015B000C1FEFFF7BFFE00BF0038024000700040D0
:1015C00008B501F0A7F9FFF7ABFFFFF7F9FBFFF74D
:1015D000E3FEFFF7FFFEFFF755FFFFF787FFFFF77B
:1015E000ABFE184800F0C4FA20B11748FFF794FD8D
:1015F000FFF7A0FE40F20341124800F09CFB0021DF
:10160000124801F075FD124801F074FA0A21002019
:1016100002F022F80F4B1B68012BFBD10E4B1888F0
:10162000FFF742FC0D4B83ED000AFFF775FC0C4BF6
:1016300093ED000AFFF714FD0A21002002F00CF8D8
:10164000E8E700BFA40000204C410008CC000020C7
:1016500014010020DC01002098000020AC010020D3
:10166000A8010020FEE7FEE7FEE7FEE7FEE7704781
:101670007047704708B501F067F908BD08B5024822
:1016800000F074FB08BD00BFA400002008B50248AC
:1016900000F06CFB08BD00BFA400002008B50248A4
:1016A00000F064FB08BD00BFA400002008B502489C
:1016B00000F05CFB08BD00BFA400002008B5024894
:1016C00001F060FA08BD00BF1401002082B00021C3
:1016D00000910B4B5A6C42F480425A645A6C02F4EB
:1016E00080420092009A01911A6C42F080521A6472
:1016F0001B6C03F080530193019B02B0704700BF45
:101700000038024030B589B0002303930493059359
:10171000069307930268254B9A4201D009B030BD69
:101720000024019403F5EA331A6C42F000721A6443
:101730001A6C02F000720192019A02941A6B42F044
:1017400002021A631B6B03F002030293029B4FF425
:1017500040730393022504950323069309230793FB
:1017600003A9134800F04CFF22462946132001F03C
:1017700051F8132001F086F822462946142001F082
:1017800049F8142001F07EF822462946152001F080
:1017900041F8152001F076F822462946162001F07E
:1017A00039F8162001F06EF8B8E700BF0064004079
:1017B000000402400268094B9A4200D0704782B090
:1017C00000230193064B5A6C42F001025A645B6C91
:1017D00003F001030193019B02B070470000014038
:1017E000003802400368B3F1804F00D0704700B565
:1017F00083B00022019203F50E33196C41F0010110
:1018000019641B6C03F001030193019B03211C204D
:1018100001F000F81C2001F035F803B05DF804FB7E
:1018200000B587B0002301930293039304930593BB
:1018300002680F4B9A4202D007B05DF804FB002308
:1018400000930C4B1A6B42F010021A631B6B03F0EF
:1018500010030093009B4FF4007301930223029343
:101860000123059301A9044800F0CAFEE4E700BF84
:1018700000000140003802400010024000B589B06D
:101880000023039304930593069307930268154B73
:101890009A4202D009B05DF804FB0021019103F5E2
:1018A00092335A6C42F020025A645A6C02F02002C1
:1018B0000192019A02911A6B42F004021A631B6BA7
:1018C00003F004030293029BC023039302230493B7
:1018D000032306930823079303A9034800F090FE0F
:1018E000D8E700BF0014014000080240002800F0C3
:1018F000A18038B5044690F82030D3B1226813682F
:1019000043F00103136001F02BF8054623685A6881
:1019100012F0010F10D101F023F8401B0A28F5D96D
:10192000636A43F400336362052384F820300120A6
:1019300038BDFFF7E7FEE1E71A6822F002021A60FD
:1019400001F00EF8054623685A6812F0020F0DD018
:1019500001F006F8401B0A28F5D9636A43F4003306
:101960006362052384F820300120E1E7227E012A0A
:101970003DD01A6822F080021A60637E012B3BD0B2
:101980002268136823F040031360A37E012B39D033
:101990002268136823F020031360E37E012B37D005
:1019A0002268136843F010031360237F012B35D0A6
:1019B0002268136823F008031360637F012B33D080
:1019C0002268136823F004031360A368E2681343DA
:1019D00022691343626913436268013A2168134321
:1019E000CB6100206062012384F82030A0E71A68F0
:1019F00042F080021A60C0E72268136843F0400397
:101A00001360C2E72268136843F020031360C4E741
:101A10002268136823F010031360C6E72268136876
:101A200043F008031360C8E72268136843F0040317
:101A30001360CAE70120704790F82030013BDBB209
:101A4000012B05D9436A43F4802343620120704788
:101A500030B5464BD3F8002242F00102C3F8002211
:101A6000D3F8002222F47C52C3F80022D3F80022DB
:101A7000486A42EA0022C3F800224A6902F01F02C3
:101A8000012000FA02F2D3F81C026FEA020C20EAED
:101A90000200C3F81C02CB69C3B9344BD3F80C0263
:101AA0000CEA0000C3F80C028C884869CD6844EA4F
:101AB0000544483043F830408C68088840EA0440C8
:101AC0004C6904F1480E03EBCE035860CB69012B3F
:101AD0001ED08B69002B33D12448D0F804320CEA95
:101AE0000303C0F804320B698BBB2048D0F81432D2
:101AF0000CEA0303C0F814320B6A012B2ED01B4AE8
:101B0000D2F8003223F00103C2F80032002030BDC9
:101B1000164BD3F80C021043C3F80C028C884869AA
:101B20000D6844EA0544483043F8304088894C69E0
:101B30008D6840EA0540483403EBC4035860C8E7A9
:101B40000A48D0F804321343C0F80432CBE7074800
:101B5000D0F814321343C0F81432CDE70349D1F85A
:101B60001C321A43C1F81C22C9E700BF00640040C0
:101B700070B5044690F82050EDB2012D06D0436AAE
:101B800043F4002343620125284670BD022380F8F8
:101B900020300268136823F00103136000F0E0FEB8
:101BA000064623685B6813F0010F0CD000F0D8FEE6
:101BB000831B0A2BF5D9636A43F400336362052360
:101BC00084F82030E0E700256562DDE790F820C06A
:101BD0000CF1FF3C5FFA8CFCBCF1010F00F2A58018
:101BE00030B451B90468E46814F0030F10D1436AAB
:101BF00043F40013436201207EE00468246914F07A
:101C0000030F05D1436A43F400134362012073E0DC
:101C1000056801F11B0424012C5904F004049460AC
:101C2000002C6BD1056801F11B0424012C59640DB3
:101C30001460046801F11B0C4FEA0C1C54F80C40B2
:101C400004F00204D4600468A444DCF8045015F0E5
:101C5000080F5BD008241461056801F11B0C05EB2B
:101C60000C156D68C5F307259561046804EB0C1429
:101C70006468240C5461026802EB0112D2F8B821A6
:101C80001A70026802EB0112D2F8B821C2F30722DF
:101C90005A70026802EB0112D2F8B821C2F307426F
:101CA0009A70026802EB0112D2F8B821120EDA70B3
:101CB000026802EB0112D2F8BC211A71026802EB31
:101CC0000112D2F8BC21C2F307225A71026802EB5A
:101CD0000112D2F8BC21C2F307429A71026802EBEA
:101CE0000112D2F8BC21120EDA71C1B90268D368B0
:101CF00043F02003D360002030BC7047056801F139
:101D00001B0424012C59E408546092E701F11B05DF
:101D100004EB0514646804F00F0414619CE7026886
:101D2000136943F020031361E5E7436A43F480231A
:101D300043620120704790F82030013BDBB2012B59
:101D400005D9436A43F48023436201207047026847
:101D500053691943516100207047704770477047BD
:101D60007047704770477047704770472DE9F84FCC
:101D7000054603685C69D3F804809F68D3F80CB00B
:101D8000D3F810A0D3F8189014F001063BD017F048
:101D9000010616D001229A6017F0020F08D117F041
:101DA000040F0CD117F0080606D04FF4805608E057
:101DB000FFF7C0F9002604E0FFF7CFFF01E04FF482
:101DC000006617F4807F0DD02B684FF480729A6004
:101DD00017F4007F40F0868017F4806F00F0868053
:101DE00046F4005617F4803F0DD02B684FF4803234
:101DF0009A6017F4003F40F0838017F4802F00F0C2
:101E0000838046F4004614F0080F07D01BF0100F33
:101E100004D046F400762B681022DA6014F0040F28
:101E200002D01BF0080F79D114F0020F04D02B68F8
:101E3000DB6813F0030F78D114F0400F07D01AF0CD
:101E4000100F04D046F480662B6810221A6114F03B
:101E5000200F02D01AF0080F6BD114F0100F04D02D
:101E60002B681B6913F0030F6AD114F4003F02D0F2
:101E700018F0100F68D114F4803F02D018F0080F4A
:101E800069D114F4004F7AD018F0040F74D014F410
:101E9000807F04D019F0010F01D046F0010614F440
:101EA000007F04D019F0020F01D046F0020614F4AE
:101EB000806F04D019F0040F01D046F0040614F42A
:101EC000006F59D019F0700956D0B9F1400F65D0A4
:101ED00058D8B9F1200F5ED0B9F1300F42D146F099
:101EE000200644E02846FFF743F97BE717F4006F2C
:101EF00002D046F4804675E72846FFF72FFF71E7CA
:101F00002846FFF753F97EE717F4002F02D046F476
:101F1000803678E72846FFF722FF74E72B6808220F
:101F2000DA602846FFF71CFF7EE72846FFF75CF9DA
:101F300082E72B6808221A612846FFF713FF8CE717
:101F40002846FFF70EFF90E72B6810225A602846BC
:101F5000FFF709FF8FE72B6808225A602846FFF732
:101F600003FF8EE7B9F1100F01D146F008062A6889
:101F7000936923F0700393612B6804225A609EB921
:101F8000BDE8F88FB9F1500F0BD0B9F1600FEED169
:101F900046F48076EBE746F01006E8E746F04006A8
:101FA000E5E746F08006E2E76B6A1E436E6228466C
:101FB000FFF7DBFEE4E70000002800F0E08170B5E9
:101FC00082B00446036813F0010F3BD09F4B9B681F
:101FD00003F00C03042B2CD09C4B9B6803F00C03E8
:101FE000082B21D06368B3F5803F4FD0B3F5A02F05
:101FF00052D0964B1A6822F480321A601A6822F482
:1020000080221A606368002B50D000F0A9FC0546BE
:102010008E4B1B6813F4003F14D100F0A1FC401B51
:102020006428F5D90320B1E1884B5B6813F4800F75
:10203000D8D0864B1B6813F4003F03D06368002B95
:1020400000F09F81236813F0020F54D07F4B9B68F0
:1020500013F00C0F3ED07D4B9B6803F00C03082B54
:1020600033D0E368002B68D0794B01221A6000F06E
:1020700077FC0546754B1B6813F0020F54D100F036
:102080006FFC401B0228F5D903207FE16F4A1368DB
:1020900043F480331360B5E76C4B1A6842F4802236
:1020A0001A601A6842F480321A60ABE700F058FCFC
:1020B0000546664B1B6813F4003FC3D000F050FC8C
:1020C000401B6428F5D9032060E1604B5B6813F482
:1020D000800FC6D15D4B1B6813F0020F03D0E3687D
:1020E000012B40F05081594A136823F0F80321690D
:1020F00043EAC1031360236813F0080F42D06369F9
:102100006BB3534B0122C3F8802E00F029FC054627
:102110004E4B5B6F13F0020F34D100F021FC401BDB
:102120000228F5D9032031E1484A136823F0F80367
:10213000216943EAC1031360DDE7454B00221A60C1
:1021400000F00EFC0546414B1B6813F0020FD2D085
:1021500000F006FC401B0228F5D9032016E13C4B99
:102160000022C3F8802E00F0FBFB0546374B5B6F67
:1021700013F0020F06D000F0F3FB401B0228F5D944
:10218000032003E1236813F0040F77D02F4B1B6C5F
:1021900013F0805F33D1002301932C4B1A6C42F073
:1021A00080521A641B6C03F080530193019B01253C
:1021B000284B1B6813F4807F23D0A368012B34D0F5
:1021C000052B38D0214B1A6F22F001021A671A6FC3
:1021D00022F004021A67A368002B3DD000F0C0FB78
:1021E00006461A4B1B6F13F0020F46D100F0B8FBE6
:1021F000801B41F288339842F3D90320C6E00025C2
:10220000D6E7144A136843F48073136000F0A8FB08
:102210000646104B1B6813F4807FCED100F0A0FB64
:10222000801B0228F5D90320B0E0084A136F43F061
:1022300001031367CFE7054B1A6F42F004021A67D8
:102240001A6F42F001021A67C5E700BF003802406A
:10225000000047420070004000F082FB0646524BEF
:102260001B6F13F0020F08D000F07AFB801B41F2C5
:1022700088339842F3D9032088E0EDB9A369002B95
:1022800000F08380484A926802F00C02082A51D07C
:10229000022B17D0454B00221A6600F061FB044662
:1022A000414B1B6813F0007F42D000F059FB001B2C
:1022B0000228F5D9032069E03B4A136C23F08053D0
:1022C0001364DBE7394B00221A6600F049FB054630
:1022D000354B1B6813F0007F06D000F041FB401B1C
:1022E0000228F5D9032051E0E369226A1343626AA8
:1022F00043EA8213A26A5208013A43EA0243E26ABD
:1023000043EA0263284A5360284B01221A6600F010
:1023100027FB0446244B1B6813F0007F06D100F016
:102320001FFB001B0228F5D903202FE000202DE021
:1023300000202BE0012B2BD01B4B5B6803F48001AA
:10234000E269914226D103F03F02216A8A4223D1F9
:10235000616A47F6C0721A40B2EB811F1ED103F4C6
:102360004031A26A5208013AB1EB024F18D103F092
:102370007063E26AB3EB026F14D1002006E0012023
:102380007047012002E0012000E0002002B070BD93
:102390000120FBE70120F9E70120F7E70120F5E73D
:1023A0000120F3E70120F1E7003802400000474236
:1023B00008B5254B9B6803F00C03042B3FD0082B7A
:1023C0003FD1214B5A6802F03F025B6813F4800F43
:1023D00012D01D4B5968C1F388111C480023A1FB82
:1023E0000001FEF76BFB184B5B68C3F3014301333D
:1023F0005B00B0FBF3F025E0134B5968C1F3881C78
:102400004FEA4C11B1EB0C006EEB0E0E4FEA8E133F
:1024100043EA90638101091A63EB0E03DB0043EA90
:102420005173C90011EB0C0C43F100039902002316
:102430004FEA8C2041EA9C51FEF740FBD3E703486A
:1024400000E0034808BD00BF0038024040787D012D
:102450000024F400002800F09B8070B50D4604466F
:102460004F4B1B6803F007038B4208D2CBB24C4A98
:102470001370136803F007038B4240F08B802368CE
:1024800013F0020F17D013F0040F04D0454A9368DD
:1024900043F4E0539360236813F0080F04D0414ADB
:1024A000936843F4604393603E4A936823F0F003DB
:1024B000A1680B439360236813F0010F32D0636867
:1024C000012B21D09A1E012A25D9364A126812F012
:1024D000020F61D033498A6822F0030213438B60F4
:1024E00000F03EFA06462F4B9B6803F00C0362682F
:1024F000B3EB820F16D000F033FA801B41F2883321
:102500009842F0D9032042E0264A126812F4003FB4
:10251000E0D101203BE0234A126812F0007FD9D1BC
:10252000012034E01E4B1B6803F00703AB4207D9C0
:10253000EAB21B4B1A701B6803F00703AB422DD1A4
:10254000236813F0040F06D0164A936823F4E0536F
:10255000E1680B439360236813F0080F07D0114A1A
:10256000936823F46043216943EAC1039360FFF752
:102570001FFF0C4B9B68C3F303130B4AD35CD8407B
:102580000A4B18600A4B186800F09EF9002070BDD5
:10259000012070470120FAE70120F8E70120F6E763
:1025A000003C024000380240604100080800002062
:1025B00004000020014B1868704700BF080000208D
:1025C00008B5FFF7F7FF044B9B68C3F38223034A68
:1025D000D35CD84008BD00BF0038024070410008FD
:1025E00008B5FFF7E7FF044B9B68C3F34233034A88
:1025F000D35CD84008BD00BF0038024070410008DD
:1026000000230F2B00F2E48070B582B060E0856893
:102610005E000324B44025EA0405CC68B4402C4392
:102620008460456825EA02054C68C4F300129A40AC
:102630002A4342605AE0DC08083450F8246003F072
:10264000070295000F22AA4026EA020E0A69AA4054
:1026500042EA0E0240F824205CE0072200E000225B
:1026600002FA0EF22A4302345A4D45F824205A4AFF
:1026700094686FEA0C0224EA0C054E6816F4801F79
:1026800001D04CEA0405544CA560E46802EA040554
:102690004E6816F4001F01D04CEA04054E4CE5606C
:1026A000646802EA04054E6816F4003F01D04CEA63
:1026B0000405494C6560246822404D6815F4803F4C
:1026C00001D04CEA0402444C226001330F2B7DD828
:1026D00001229A400C6804EA020C32EA0404F4D1A4
:1026E0004C6804F00304013C012C90D94A6802F0C4
:1026F0000302032A09D0C4685D000322AA4024EA29
:1027000002048A68AA402243C2604A6802F00302B7
:10271000022A90D004684FEA430E032202FA0EF216
:1027200024EA02044A6802F0030202FA0EF222438B
:1027300002604A6812F4403FC7D000220192274A43
:10274000546C44F480445464526C02F4804201920C
:10275000019A9C08A51C1F4A52F8255003F0030259
:102760004FEA820E0F2202FA0EF225EA02051C4AF7
:1027700090423FF474AF02F5806290421AD002F5A5
:102780008062904218D002F58062904216D002F525
:102790008062904214D002F58062904212D002F51D
:1027A0008062904210D002F5806290423FF455AFB3
:1027B000082255E7012253E7022251E703224FE79F
:1027C00004224DE705224BE7062249E702B070BD1F
:1027D000704700BF00380140003C01400038024013
:1027E000000002400AB181617047090481617047AD
:1027F000074AD36823F4E0631B041B0C000200F4B7
:10280000E060034343F0BF6343F40033D360704799
:1028100000ED00E000B5194BDB68C3F30223C3F100
:10282000070CBCF1040F28BF4FF0040C03F1040E99
:10283000BEF1060F18D9033B4FF0FF3E0EFA0CFC19
:1028400021EA0C0199400EFA03F322EA030319432B
:1028500000280BDB0901C9B200F1604000F56140BE
:1028600080F800135DF804FB0023E5E700F00F009B
:102870000901C9B2024B1954F4E700BF00ED00E0B2
:1028800014ED00E0002807DB00F01F0240090123DF
:102890009340024A42F82030704700BF00E100E058
:1028A0000138B0F1807F0BD24FF0E0235861054A28
:1028B000F02182F823100020986107221A617047E6
:1028C0000120704700ED00E010B504460E4B18786B
:1028D0004FF47A73B3FBF0F30C4A1068B0FBF3F0DB
:1028E000FFF7DEFF68B90F2C01D901200AE00022B2
:1028F00021464FF0FF30FFF78DFF054B1C60002095
:1029000000E0012010BD00BF0000002008000020F2
:102910000400002008B50B4B1A6842F400721A60DC
:102920001A6842F480621A601A6842F480721A606F
:102930000320FFF75DFF0F20FFF7C6FFFEF7C6FE7F
:10294000002008BD003C0240034A1168034B1B787D
:102950000B441360704700BFD4010020000000202A
:10296000014B1868704700BFD401002030B4036ADF
:10297000026A22F0010202624268846924F0730450
:102980000D682C4323F0020C8B6843EA0C03104DB6
:10299000A84203D005F58065A84205D123F00803BD
:1029A000CD682B4323F00403094DA84203D005F55D
:1029B0008065A84205D122F440724D692A438D6991
:1029C0002A43426084614A684263036230BC7047B4
:1029D0000000014030B4036A026A22F4807202628D
:1029E0004268C46924F0730C0C6844EA0C0523F4B3
:1029F00000738C6843EA0423114CA04203D004F511
:102A00008064A04206D123F40063CC6843EA042327
:102A100023F480630A4CA04203D004F58064A042F2
:102A200007D122F440524C6942EA04128C6942EA0E
:102A300004124260C5614A68C263036230BC7047D9
:102A40000000014030B4036A026A22F4805202623C
:102A50004468C26922F4E6420D6842EA052223F482
:102A600000538D6843EA0533094DA84203D005F5AC
:102A70008065A84204D124F480444D6944EA851459
:102A80004460C2614A680264036230BC704700BFA0
:102A90000000014010B4036A046A24F001040462D7
:102AA000846924F0F00C4CEA021223F00A030B4371
:102AB000826103625DF8044B704710B4036A046AD4
:102AC00024F010040462846924F4704C4CEA02324D
:102AD00023F0A00343EA0113826103625DF8044B13
:102AE0007047836823F070030B4343F00703836050
:102AF0007047000090F83D30DBB2012B37D1022344
:102B000080F83D300268D36843F00103D360036866
:102B1000194A934220D0B3F1804F1DD0A2F57C42D8
:102B2000934219D002F58062934215D002F580627B
:102B3000934211D002F5784293420DD002F57052C3
:102B4000934209D0A2F59432934205D01A6842F01C
:102B500001021A60002070479A6802F00702062AF4
:102B600007D01A6842F001021A6000207047012065
:102B700070470020704700BF000001407047704759
:102B80007047704770B504460368DE681D6915F02C
:102B9000020F10D016F0020F0DD06FF002021A6172
:102BA0000123037703689B6913F0030F5ED0FFF7DF
:102BB000E6FF0023237715F0040F12D016F0040F60
:102BC0000FD023686FF004021A6102232377236871
:102BD0009B6913F4407F4FD02046FFF7D0FF0023BE
:102BE000237715F0080F12D016F0080F0FD02368C6
:102BF0006FF008021A61042323772368DB6913F05E
:102C0000030F40D02046FFF7BAFF0023237715F0CB
:102C1000100F12D016F0100F0FD023686FF01002B3
:102C20001A61082323772368DB6913F4407F31D0CE
:102C30002046FFF7A4FF0023237715F0010F02D0F1
:102C400016F0010F2DD115F0800F02D016F0800F75
:102C50002FD115F0400F02D016F0400F31D115F0F2
:102C6000200F02D016F0200F33D170BDFFF786FF82
:102C70002046FFF785FF9CE72046FFF77FFF2046B1
:102C8000FFF77EFFABE72046FFF778FF2046FFF710
:102C900077FFBAE72046FFF771FF2046FFF770FF86
:102CA000C9E723686FF001021A612046FEF73EFB78
:102CB000C9E723686FF080021A61204600F00AFB22
:102CC000C7E723686FF040021A612046FFF759FFFB
:102CD000C5E723686FF020021A61204600F0F9FA78
:102CE000C3E700000368344A904212D0B0F1804F2D
:102CF0000FD0A2F57C4290420BD002F58062904248
:102D000007D002F58062904203D002F578429042EB
:102D100003D123F070034A681343274A90422AD014
:102D2000B0F1804F27D0A2F57C42904223D002F52B
:102D3000806290421FD002F5806290421BD002F563
:102D40007842904217D002F57052904213D002F5AB
:102D5000806290420FD002F5806290420BD0A2F5C3
:102D60009832904207D002F58062904203D002F57B
:102D70008062904203D123F44073CA68134323F066
:102D800080034A69134303608B68C3620B688362E4
:102D9000094B984203D003F58063984201D10B6937
:102DA000036301234361036913F0010F03D0036937
:102DB00023F00103036170470000014040B310B5E8
:102DC000044690F83D30F3B1022384F83D302146AB
:102DD00051F8040BFFF786FF012384F8463084F88E
:102DE0003E3084F83F3084F8403084F8413084F835
:102DF000423084F8433084F8443084F8453084F815
:102E00003D30002010BD80F83C30FEF7EBFCDBE7E6
:102E10000120704740B310B5044690F83D30F3B13F
:102E2000022384F83D30214651F8040BFFF75AFF86
:102E3000012384F8463084F83E3084F83F3084F82B
:102E4000403084F8413084F8423084F8433084F8CC
:102E5000443084F8453084F83D30002010BD80F8BF
:102E60003C30FEF7A7FCDBE70120704730B4036A73
:102E7000026A22F0100202624468826922F4E64289
:102E80000D6842EA052223F020038D6843EA05130A
:102E9000114DA84203D005F58065A84206D123F064
:102EA0008003CD6843EA051323F040030A4DA8428E
:102EB00003D005F58065A84207D124F440644D692C
:102EC00044EA85048D6944EA8504446082614A6865
:102ED0008263036230BC70470000014038B590F84F
:102EE0003C30012B66D004460D46012380F83C306F
:102EF0000C2A5AD8DFE802F0075959591B59595979
:102F00003059595944000068FFF730FD2268936931
:102F100043F0080393612268936923F004039361EB
:102F20002268936929690B43936100203EE00068A1
:102F3000FFF79CFF2268936943F400639361226862
:102F4000936923F48063936122689369296943EA52
:102F500001239361002029E00068FFF73BFD226810
:102F6000D36943F00803D3612268D36923F00403D3
:102F7000D3612268D36929690B43D361002015E02E
:102F80000068FFF75FFD2268D36943F40063D361F3
:102F90002268D36923F48063D3612268D3692969E5
:102FA00043EA0123D361002000E00120002384F8DC
:102FB0003C3038BD0220FCE710B4846824F47F4C18
:102FC00042EA03220A4342EA0C0282605DF8044BA3
:102FD000704790F83C30012B78D010B5044601239F
:102FE00080F83C30022380F83D300268936823F477
:102FF0007F4323F0770393600B68602B4CD029D874
:10300000402B54D00CD9502B22D1CA684968006893
:10301000FFF740FD50212068FFF763FD002005E029
:10302000202B0DD009D9302B0AD00120012384F8A0
:103030003D30002384F83C3010BD0BB1102B05D17E
:1030400019462068FFF74DFD0020EFE70120EDE76E
:103050000120EBE7B3F5805F34D0B3F5005F0CD10E
:10306000CB684A6889680068FFF7A6FF2268936802
:1030700043F4804393600020D8E7702B24D1CB68C1
:103080004A6889680068FFF797FF2268936843F0F1
:10309000770393600020C9E7CA6849680068FFF7B2
:1030A0000CFD60212068FFF71CFD0020BEE7CA6808
:1030B00049680068FFF7EEFC40212068FFF711FD2A
:1030C0000020B3E70020B1E70120AFE702207047FE
:1030D00001F01F01012303FA01FC036A23EA0C0338
:1030E0000362036A02FA01F10B43036270470000B6
:1030F00010B504460846002942D194F83E30DBB2B0
:10310000013B18BF0123002B6ED1002851D10223AF
:1031100084F83E30012201462068FFF7D9FF23687A
:10312000334A934203D002F58062934203D15A6C32
:1031300042F400425A6423682D4A934249D0B3F1C5
:10314000804F46D0A2F57C42934242D002F5806285
:1031500093423ED002F5806293423AD002F5784223
:10316000934236D002F57052934232D0A2F5943297
:1031700093422ED01A6842F001021A60002032E019
:10318000042908D008290DD094F84130DBB2013B66
:1031900018BF0123B7E794F83F30DBB2013B18BFFB
:1031A0000123B0E794F84030DBB2013B18BF0123A4
:1031B000A9E7042805D0082807D0022384F8413065
:1031C000A8E7022384F83F30A4E7022384F84030C4
:1031D000A0E79A6802F00702062A07D01A6842F0B0
:1031E00001021A60002010BD0120FCE70020FAE770
:1031F0000000014090F83C30012B3DD010B4012379
:1032000080F83C30022380F83D3003685A689C689F
:1032100022F0700C0A6842EA0C025A600368174AEE
:1032200093421AD0B3F1804F17D0A2F57C4293425B
:1032300013D002F5806293420FD002F58062934270
:103240000BD002F57842934207D002F570529342B8
:1032500003D0A2F59432934204D124F080044A684A
:1032600014439C60012380F83D30002380F83C30FB
:1032700018465DF8044B704702207047000001407B
:1032800090F83C30012B22D0012380F83C30CB68F1
:1032900023F440738A68134323F480634A6813431A
:1032A00023F400630A68134323F480530A69134329
:1032B00023F400534A69134323F48043CA69134338
:1032C00002685364002380F83C301846704702209F
:1032D000704770477047026802F10C0353E8003FE3
:1032E00023F490730C3242E800310029F3D10268D4
:1032F00002F1140353E8003F23F00103143242E8C3
:1033000000310029F3D1036B012B05D0202380F875
:103310004230002303637047026802F10C0353E854
:10332000003F23F010030C3242E800310029F3D1B2
:10333000ECE7000038B504460268136923F44053F3
:10334000C1680B43136183680269134342691343E5
:10335000C2691A430168CB6823F4164323F00C03B7
:103360001343CB600268536923F4407381690B43B4
:1033700053610368314A934206D002F5806293425A
:1033800002D0FFF71DF901E0FFF72AF9E369B3F571
:10339000004F29D00021031849411B1841F10001B9
:1033A000C90041EA5371DB00181863684FEA8302D1
:1033B0004FEA937341F10001FDF780FB204DA5FB1F
:1033C00000325109642303FB11031B013233A5FBB7
:1033D00003235B0903F0F00202EB011203F00F0379
:1033E000216813448B6038BD0023021843EB0301AE
:1033F000121841F10001C90041EA5271D2001018BF
:1034000041F10001626892185B41FDF757FB0C4DDA
:10341000A5FB00325109642303FB1103DB003233A7
:10342000A5FB03235B095A0002F4F87202EB0112B8
:1034300003F00703216813448B60D4E700100140B8
:103440001F85EB512DE9F04383B005460E46174624
:103450009946DDF828802C68246836EA04030CBFFE
:103460004FF0010C4FF0000CBC4528D1B8F1FF3FE4
:10347000F1D0FFF775FAA0EB0900404523D8B8F169
:10348000000F22D02B68DA6812F0040FE3D0802EF0
:10349000E1D0402EDFD01A6812F0080FDBD00024F4
:1034A00001941A6801925B680193019B2846FFF71B
:1034B00012FF08236B6485F84040012000E00020E3
:1034C00003B0BDE8F0830320FAE70320F8E760B318
:1034D00010B5044690F8413013B3242384F84130EA
:1034E0002268D36823F40053D3602046FFF722FFFD
:1034F0002268136923F4904313612268536923F00F
:103500002A0353612268D36843F40053D360002038
:103510006064202384F8413084F84230606310BD39
:1035200080F84030FEF7AAF9D7E7012070472DE96F
:10353000F04182B01E4690F84130DBB2202B56D1CC
:1035400004460D469046002955D00AB901204FE0A7
:1035500000234364212380F84130FFF701FA074636
:10356000A4F82480A4F82680A368B3F5805F02D075
:103570004FF0000814E023692BB34FF000080FE070
:10358000202384F84130032032E038F8023B2268DF
:10359000C3F308035360E28C92B2013A92B2E28420
:1035A000E38C9BB293B100963B46002280212046DB
:1035B000FFF748FF0028E3D1002DE6D015F8012BD6
:1035C00023685A60E7E7A8460025E9E700963B46EE
:1035D000002240212046FFF735FF18B9202384F848
:1035E000413005E0202384F84130032000E0022030
:1035F00002B0BDE8F0810120FAE70000034AD2F8EA
:10360000883043F47003C2F88830704700ED00E062
:1036100010B503460C4A0D490D48006840B10C48EE
:1036200000680344521A934206D8094A136010BD39
:103630000748084C0460F2E700F066F80C230360CA
:103640004FF0FF30F3E700BF00000220000400004D
:10365000D801002040020020064B83FB0123C9173C
:10366000C1EBA301044B43F82010044B002243F8A4
:10367000202070476766666604020020DC01002097
:10368000002300E00133092B0FDC084A52F8232005
:10369000002AF7DD013A054941F82320002AF1DC30
:1036A000034A012142F82310ECE77047040200208E
:1036B000DC010020DFF834D0FFF7A0FF0C480D49F3
:1036C0000D4A002302E0D458C4500433C4188C427D
:1036D000F9D30A4A0A4C002301E013600432A242E3
:1036E000FBD300F017F8FDF76BFF704700000220D6
:1036F0000000002070000020BC4100087000002085
:103700003C020020FEE70000014B1868704700BF34
:103710000C00002070B50D4D0D4C641BA41000264C
:10372000A64209D10B4D0C4C00F0A2FC641BA41066
:103730000026A64205D170BD55F8043B98470136D6
:10374000EEE755F8043B98470136F2E7B44100082C
:10375000B4410008B4410008B841000802440346DF
:10376000934200D1704703F8011BF9E70CB430B560
:10377000174B0C1E1D689DB008DA8B232B604FF091
:10378000FF301DB0BDE8304002B070474FF4027307
:10379000ADF8143014BF04F1FF33234604930793AC
:1037A0004FF6FF7302900690ADF81630209A21ABC9
:1037B00002A92846019300F069F8431CBCBF8B2383
:1037C0002B60002CDDD0029B00221A70D9E700BFCD
:1037D0000C0000202DE9F0478E689E4282460C4680
:1037E00090461F4638D88A8912F4906F32D02568E7
:1037F0000969A5EB0109656905EB450505EBD5757B
:1038000001334B446D109D4238BF1D46530531D5E1
:10381000294600F063FB064650B90C23CAF8003075
:10382000A38943F04003A3814FF0FF30BDE8F08748
:1038300021694A4600F0BEFAA38923F4906343F05D
:103840008003A381266165614E44A5EB09052660CE
:10385000A5603E46BE4200D93E46206832464146FB
:1038600000F0B6FAA3689B1BA3602368334423606F
:103870000020DBE72A4600F0A5FB06460028E1D140
:103880002169504600F0BEFAC7E700002DE9F04F6D
:1038900098468B891B069DB007460D4614460ED5EB
:1038A0000B6963B9402100F019FB2860286120B939
:1038B0000C233B604FF0FF30D1E040236B610023CD
:1038C000099320238DF82930CDF80C803023DFF8C0
:1038D000A8818DF82A304FF0010923469A4613F843
:1038E000012B0AB1252AF9D1BAEB040B0BD05B46A8
:1038F000224629463846FFF76DFF013000F0AA80C6
:10390000099A5A4409929AF80030002B00F0A280DC
:1039100000234FF0FF32CDE905230AF1010A049399
:1039200007938DF853301A935446052214F8011B5F
:103930005148FCF755FC049AD8B9D00644BF20235F
:103940008DF85330110744BF2B238DF853309AF86C
:1039500000302A2B15D0079A544600204FF00A0C4D
:10396000214611F8013B303B092B4ED9B0B10792EB
:1039700014E0A0EB080309FA03F313430493A246EF
:10398000D2E7039B191D1B680391002BBBBF5B4251
:1039900042F0020207930793B8BF049223782E2BBC
:1039A0000CD163782A2B35D1039B1A1D1B68039217
:1039B000002BB8BF4FF0FF3302340593DFF8C8A0E7
:1039C000217803225046FCF70BFC40B14023A0EBCA
:1039D0000A0003FA00F0049B03430134049314F833
:1039E000011B26488DF828100622FCF7F9FB002859
:1039F00038D0234B1BBB039B073323F0070308334B
:103A00000393099B3344099367E70CFB02320C468E
:103A10000120A5E700230134059319464FF00A0C55
:103A2000204610F8012B303A092A03D9002BC5D0C3
:103A30000591C3E70CFB012104460123F0E703AB2A
:103A400000932A460F4B04A93846AFF30080421C6E
:103A50000646D6D1AB895B063FF52CAF09981DB061
:103A6000BDE8F08F03AB00932A46064B04A9384605
:103A700000F07AF8EBE700BF7841000882410008C7
:103A800000000000D53700087E4100082DE9F0470E
:103A9000164699468A680B69DDF820809342B8BFC4
:103AA0001346336091F8432007460C460AB10133B0
:103AB00033602368990642BF336802333360256858
:103AC00015F0060506D104F1190AE36832689B1A5D
:103AD000AB4226DC94F84320131E226818BF012352
:103AE00092062BD404F1430249463846C0470130C0
:103AF0001ED02368E568326803F00603042B08BF74
:103B0000AD1AA36822690CBF25EAE575002593422A
:103B1000C4BF9B1AED1800261A34B5421AD10020F2
:103B200008E00123524649463846C047013003D1D8
:103B30004FF0FF30BDE8F0870135C6E7E1185A1CA9
:103B4000302081F84300224494F8451082F8431055
:103B50000233C7E70123224649463846C0470130B1
:103B6000E6D00136D9E700002DE9FF470F7E0C9D16
:103B7000782F914680460C469A4601F1430207D8B9
:103B8000622F0AD8002F00F0D880582F00F0A380B1
:103B900004F1420584F842703AE0A7F16303152B63
:103BA000F6D801A151F823F0013C0008153C0008AB
:103BB000913B0008913B0008913B0008913B0008B5
:103BC000153C0008913B0008913B0008913B000820
:103BD000913B0008213D0008453C0008033D0008DA
:103BE000913B0008913B0008433D0008913B0008D1
:103BF000453C0008913B0008913B00080B3D000844
:103C00002B681A1D1B682A6004F1420584F84230B3
:103C10000123A3E020682968060601F104030AD500
:103C20000E682B60002E03DA2D23764284F8433091
:103C30005E480A2319E00E682B6010F0400F18BF91
:103C400036B2EFE72B682068191D2960010601D5FF
:103C50001E6802E04606FBD51E8854486F2F0CBF35
:103C600008230A23002184F843106568A560002D0D
:103C7000A2BF216821F0040121600EB9002D4DD0B2
:103C80001546B6FBF3F103FB1167C75D05F8017D2F
:103C90003746BB420E46F4D9082B0BD12368DE070A
:103CA00008D5236961689942DEBF302305F8013CDD
:103CB00005F1FF35521B2261CDF800A04B4603AA47
:103CC00021464046FFF7E2FE01304CD14FF0FF3075
:103CD00004B0BDE8F087354881F84570296823684D
:103CE00051F8046B29601D0614D5DF0744BF43F06B
:103CF000200323601EB9236823F0200323601023D0
:103D0000B0E7236843F0200323607823284884F831
:103D10004530E3E7590648BFB6B2E6E71546BBE7CC
:103D20002B6826686169181D286035061B6801D557
:103D3000196002E07006FBD5198000232361154647
:103D4000BAE72B681A1D2A601D68626800212846A0
:103D5000FCF746FA08B1401B6060636823610023EA
:103D600084F84330A8E723692A4649464046D047AD
:103D70000130ABD023689B0713D4E068039B9842C3
:103D8000B8BF1846A4E70123324649464046D0470B
:103D900001309BD00135E36803995B1AAB42F2DC3A
:103DA000EBE7002504F11906F5E700BF894100089B
:103DB0009A4100080A44914200F1FF3300D1704754
:103DC00010B511F8014B03F8014F9142F9D110BD24
:103DD000884210B501EB020402D98442234607D879
:103DE000431EA14208D011F8012B03F8012FF8E778
:103DF000024401468A4200D110BD13F8014D02F879
:103E0000014DF7E737B5002944D051F8043C019043
:103E1000002BA1F10404B8BFE41800F013F91E4A06
:103E20000198136833B96360146003B0BDE8304093
:103E300000F00EB9A34208D9256861198B4201BF71
:103E400019685B6849192160EDE71A465B680BB198
:103E5000A342FAD911685518A5420BD12468214410
:103E60005418A3421160E0D11C685B685360214480
:103E70001160DAE702D90C230360D6E725686119DF
:103E80008B4204BF19685B68636004BF49192160F5
:103E90005460CAE703B030BD2C02002070B50E4E4E
:103EA0000C463168054611B900F0BCF83060214677
:103EB000284600F0B7F8431C0AD0C41C24F00304C1
:103EC000A04207D0211A284600F0ACF8013001D1F9
:103ED0004FF0FF34204670BD300200202DE9F04144
:103EE000CD1C25F0030508350C2D38BF0C25002D01
:103EF000074601DBA94205D90C233B60002630466A
:103F0000BDE8F0812E4E00F09DF833681C4634BBAE
:103F100029463846FFF7C2FF431C04464DD134689A
:103F20002646002E40D123683146384604EB03086C
:103F300000F078F880453AD1216803356D1A25F0F4
:103F4000030508350C2D38BF0C2529463846FFF7E8
:103F5000A5FF01302BD023682B4423600EE022689C
:103F6000521B1ED40B2A16D96119A342256018BF13
:103F70005960636808BF316062514B60384604F194
:103F80000B0600F065F826F00706231DF21AB6D0DE
:103F90009B1BA350B3E76268A3420CBF32605A6018
:103FA000ECE723466468B2E734467668B9E70C2349
:103FB0003B60384600F04CF8A1E72560DEE700BF23
:103FC0002C0200202DE9F041804614460E4621B90E
:103FD000BDE8F0411146FFF781BF2AB9FFF712FF94
:103FE00025462846BDE8F08100F038F884420746AF
:103FF00002D8B4EB500F12D821464046FFF76EFFAF
:1040000005460028EDD0BC422246314628BF3A463C
:10401000FFF7D0FE31464046FFF7F4FEE1E73546B4
:10402000DFE7000038B5064D0023044608462B6044
:10403000FFF7EEFA431C02D12B6803B1236038BDB1
:1040400034020020014800F011B800BF38020020FF
:10405000014800F00CB800BF3802002051F8043CC1
:10406000181F002BBCBF0B58C01870477047704713
:10407000F8B500BFF8BC08BC9E467047F8B500BF55
:08408000F8BC08BC9E46704725
:104088004D657373616765205472616E736D6974F1
:104098007465643A204D300A000000004D65737362
:1040A800616765205472616E736D69747465643AF2
:1040B800204D310A000000004D657373616765206B
:1040C8005472616E736D69747465643A204D320A76
:1040D800000000005265636569766564205450539A
:1040E800313D25752C20545053323D25750D0A005D
:1040F80043414E3A20736574706F696E743D252E86
:1041080032662C204B693D252E32662C204B703DA3
:10411800252E32662C204B693D252E32660D0A006D
:1041280043414E2046696C74657220436F6E666920
:1041380067204661696C6564202842616E6B203196
:10414800290D0A0043414E20537461727420466160
:10415800696C65640D0A00000000000000000000A2
:104168000102030406070809000000000102030415
:10417800232D302B2000686C4C0065666745464748
:1041880000303132333435363738394142434445CB
:10419800460030313233343536373839616263643A
:0441A8006566000048
:0841AC0040C9FF7F0100000083
:0441B400B501000849
:0441B8009101000869
:1041BC0001000000100000000024F400100000209A
:1041CC0000000000000000000000000000000000E3
:1041DC0000000000000000000000000000000000D3
:1041EC0000000000000000000000000000000000C3
:1041FC0000000000000000000000000000000000B3
:10420C0000000000000000000000000000000000A2
:10421C000000000000000000000000000000000092
:04000005080036B504
:00000001FF
