:020000040800F2
:1000000000500020E9330008AD100008AF100008D0
:10001000B1100008B3100008B5100008000000007F
:10002000000000000000000000000000B710000801
:10003000B910000800000000BB100008BD10000847
:1000400031340008313400083134000831340008FC
:1000500031340008313400083134000831340008EC
:1000600031340008313400083134000831340008DC
:1000700031340008313400083134000831340008CC
:10008000313400083134000831340008C51000084C
:10009000D5100008E5100008F510000831340008FC
:1000A000313400083134000831340008313400089C
:1000B00005110008313400083134000831340008DB
:1000C000313400083134000831340008313400087C
:1000D000313400083134000831340008313400086C
:1000E00031340008313400083134000800000000C9
:1000F0000000000000000000000000000000000000
:0C01000000000000000000005FF808F1A3
:1001100010B5054C237833B9044B13B10448AFF341
:1001200000800123237010BD70000020000000003B
:10013000B43D000808B5034B1BB103490348AFF3B6
:10014000008008BD0000000074000020B43D0008DD
:10015000034613F8012B002AFBD1181A0138704707
:1001600081F0004102E000BF83F0004330B54FEA68
:1001700041044FEA430594EA050F08BF90EA020FD5
:100180001FBF54EA000C55EA020C7FEA645C7FEA68
:10019000655C00F0E2804FEA5454D4EB5555B8BF8B
:1001A0006D420CDD2C4480EA020281EA030382EAFC
:1001B000000083EA010180EA020281EA0303362D8E
:1001C00088BF30BD11F0004F4FEA01314FF4801C61
:1001D0004CEA113102D0404261EB410113F0004F73
:1001E0004FEA03334CEA133302D0524263EB43032A
:1001F00094EA050F00F0A780A4F10104D5F1200EC8
:100200000DDB02FA0EFC22FA05F2801841F1000122
:1002100003FA0EF2801843FA05F359410EE0A5F1F6
:1002200020050EF1200E012A03FA0EFC28BF4CF027
:10023000020C43FA05F3C01851EBE37101F00045DD
:1002400007D54FF0000EDCF1000C7EEB00006EEBEA
:100250000101B1F5801F1BD3B1F5001F0CD3490874
:100260005FEA30004FEA3C0C04F101044FEA4452CB
:1002700012F5800F80F09A80BCF1004F08BF5FEA52
:10028000500C50F1000041EB045141EA050130BD32
:100290005FEA4C0C404141EB0101013C28BFB1F544
:1002A000801FE9D291F0000F04BF01460020B1FA8F
:1002B00081F308BF2033A3F10B03B3F120020CDA62
:1002C0000C3208DD02F1140CC2F10C0201FA0CF040
:1002D00021FA02F10CE002F11402D8BFC2F1200CA5
:1002E00001FA02F120FA0CFCDCBF41EA0C0190405B
:1002F000E41AA2BF01EB0451294330BD6FEA0404A4
:100300001F3C1CDA0C340EDC04F11404C4F120028E
:1003100020FA04F001FA02F340EA030021FA04F3A0
:1003200045EA030130BDC4F10C04C4F1200220FAF7
:1003300002F001FA04F340EA0300294630BD21FA35
:1003400004F0294630BD94F0000F83F4801306BFFB
:1003500081F480110134013D4EE77FEA645C18BFEF
:100360007FEA655C29D094EA050F08BF90EA020F86
:1003700005D054EA000C04BF1946104630BD91EA7E
:10038000030F1EBF0021002030BD5FEA545C05D181
:100390004000494128BF41F0004130BD14F58004C0
:1003A0003CBF01F5801130BD01F0004545F0FE4134
:1003B00041F470014FF0000030BD7FEA645C1ABF69
:1003C000194610467FEA655C1CBF0B46024650EAA0
:1003D000013406BF52EA033591EA030F41F40021CC
:1003E00030BD00BF90F0000F04BF0021704730B552
:1003F0004FF4806404F132044FF000054FF0000127
:1004000050E700BF90F0000F04BF0021704730B5E7
:100410004FF4806404F1320410F0004548BF4042BC
:100420004FF000013EE700BF42004FEAE2014FEA11
:1004300031014FEA02701FBF12F07F4393F07F4FEC
:1004400081F06051704732F07F4208BF704793F0EF
:100450007F4F04BF41F40021704730B54FF4607402
:1004600001F0004521F000411CE700BF50EA010205
:1004700008BF704730B54FF000050AE050EA0102AE
:1004800008BF704730B511F0004502D5404261EB1E
:1004900041014FF4806404F132045FEA915C3FF45F
:1004A000D8AE4FF003025FEADC0C18BF03325FEAFC
:1004B000DC0C18BF033202EBDC02C2F1200300FAAD
:1004C00003FC20FA02F001FA03FE40EA0E0021FAD2
:1004D00002F11444BDE600BF70B54FF0FF0C4CF4C0
:1004E000E06C1CEA11541DBF1CEA135594EA0C0F72
:1004F00095EA0C0F00F0DEF82C4481EA030621EAAD
:100500004C5123EA4C5350EA013518BF52EA0335E7
:1005100041F4801143F4801338D0A0FB02CE4FF099
:100520000005E1FB02E506F00042E0FB03E54FF0C9
:100530000006E1FB03569CF0000F18BF4EF0010EC1
:10054000A4F1FF04B6F5007F64F5407404D25FEABD
:100550004E0E6D4146EB060642EAC62141EA555170
:100560004FEAC52040EA5E504FEACE2EB4F1FD0CB2
:1005700088BFBCF5E06F1ED8BEF1004F08BF5FEA30
:10058000500E50F1000041EB045170BD06F00046E2
:1005900046EA010140EA020081EA0301B4EB5C048F
:1005A000C2BFD4EB0C0541EA045170BD41F4801187
:1005B0004FF0000E013C00F3AB8014F1360FDEBFAC
:1005C000002001F0004170BDC4F10004203C35DA88
:1005D0000C341BDC04F11404C4F1200500FA05F30B
:1005E00020FA04F001FA05F240EA020001F00042AC
:1005F00021F0004110EBD37021FA04F642EB060122
:100600005EEA430E08BF20EAD37070BDC4F10C044B
:10061000C4F1200500FA04F320FA05F001FA04F20F
:1006200040EA020001F0004110EBD37041F10001FB
:100630005EEA430E08BF20EAD37070BDC4F1200506
:1006400000FA05F24EEA020E20FA04F301FA05F26E
:1006500043EA020321FA04F001F0004121FA04F216
:1006600020EA020000EBD3705EEA430E08BF20EAE6
:10067000D37070BD94F0000F0FD101F00046400020
:1006800041EB010111F4801F08BF013CF7D041EAA2
:10069000060195F0000F18BF704703F000465200A6
:1006A00043EB030313F4801F08BF013DF7D043EA77
:1006B0000603704794EA0C0F0CEA135518BF95EA2D
:1006C0000C0F0CD050EA410618BF52EA4306D1D1B4
:1006D00081EA030101F000414FF0000070BD50EAD3
:1006E000410606BF1046194652EA430619D094EA5D
:1006F0000C0F02D150EA013613D195EA0C0F05D147
:1007000052EA03361CBF104619460AD181EA03019A
:1007100001F0004141F0FE4141F470014FF0000052
:1007200070BD41F0FE4141F4780170BD70B54FF0ED
:10073000FF0C4CF4E06C1CEA11541DBF1CEA13556D
:1007400094EA0C0F95EA0C0F00F0A7F8A4EB05044F
:1007500081EA030E52EA03354FEA013100F0888046
:100760004FEA03334FF0805545EA131343EA12630F
:100770004FEA022245EA111545EA10654FEA0026C4
:100780000EF000419D4208BF964244F1FD0404F57D
:10079000407402D25B084FEA3202B61A65EB0305D9
:1007A0005B084FEA32024FF480104FF4002CB6EB96
:1007B000020E75EB030E22BFB61A754640EA0C0016
:1007C0005B084FEA3202B6EB020E75EB030E22BF56
:1007D000B61A754640EA5C005B084FEA3202B6EB97
:1007E000020E75EB030E22BFB61A754640EA9C0056
:1007F0005B084FEA3202B6EB020E75EB030E22BF26
:10080000B61A754640EADC0055EA060E18D04FEAE3
:10081000051545EA16754FEA06164FEAC30343EA83
:1008200052734FEAC2025FEA1C1CC0D111F4801F50
:100830000BD141EA00014FF000004FF0004CB6E749
:1008400011F4801F04BF01430020B4F1FD0C88BFE8
:10085000BCF5E06F3FF6AFAEB5EB030C04BFB6EBF3
:10086000020C5FEA500C50F1000041EB045170BDE6
:100870000EF0004E4EEA113114EB5C04C2BFD4EB13
:100880000C0541EA045170BD41F480114FF0000E97
:10089000013C90E645EA060E8DE60CEA135594EA13
:1008A0000C0F08BF95EA0C0F3FF43BAF94EA0C0F16
:1008B0000AD150EA01347FF434AF95EA0C0F7FF48B
:1008C00025AF104619462CE795EA0C0F06D152EADF
:1008D00003353FF4FDAE1046194622E750EA4106C3
:1008E00018BF52EA43067FF4C5AE50EA41047FF4D4
:1008F0000DAF52EA43057FF4EBAE12E74FEA410237
:10090000B2F1E04324BFB3F5001CDCF1FE5C0DD96D
:1009100001F0004C4FEAC0024CEA5070B2F1004FB7
:1009200040EB830008BF20F00100704711F0804FBA
:1009300021D113F13872BCBF01F00040704741F47F
:1009400080114FEA5252C2F11802C2F1200C10FA83
:100950000CF320FA02F018BF40F001004FEAC12367
:100960004FEAD32303FA0CFC40EA0C0023FA02F30B
:100970004FEA4303CCE77FEA625307D150EA0133E1
:100980001EBF4FF0FE4040F44000704701F00040B1
:1009900040F0FE4040F40000704700BF80F000408F
:1009A00002E000BF81F0004142001FBF5FEA410347
:1009B00092EA030F7FEA226C7FEA236C6AD04FEA47
:1009C0001262D2EB1363C1BFD2184140484041408C
:1009D000B8BF5B42192B88BF704710F0004F40F43E
:1009E000000020F07F4018BF404211F0004F41F45A
:1009F000000121F07F4118BF494292EA030F3FD026
:100A0000A2F1010241FA03FC10EB0C00C3F1200338
:100A100001FA03F100F0004302D5494260EB4000C7
:100A2000B0F5000F13D3B0F1807F06D340084FEA32
:100A3000310102F10102FE2A51D2B1F1004F40EB27
:100A4000C25008BF20F0010040EA0300704749008F
:100A500040EB0000013A28BFB0F5000FEDD2B0FA2C
:100A600080FCACF1080CB2EB0C0200FA0CF0AABF4F
:100A700000EBC25052421843BCBFD04018437047ED
:100A800092F0000F81F4000106BF80F400000132F3
:100A9000013BB5E74FEA41037FEA226C18BF7FEACA
:100AA000236C21D092EA030F04D092F0000F08BF0C
:100AB0000846704790EA010F1CBF0020704712F0F3
:100AC0007F4F04D1400028BF40F00040704712F132
:100AD00000723CBF00F50000704700F0004343F097
:100AE000FE4040F4000070477FEA226216BF0846CD
:100AF0007FEA23630146420206BF5FEA412390EA90
:100B0000010F40F4800070474FF0000304E000BF85
:100B100010F0004348BF40425FEA000C08BF704736
:100B200043F0964301464FF000001CE050EA0102FA
:100B300008BF70474FF000030AE000BF50EA01020F
:100B400008BF704711F0004302D5404261EB4101FC
:100B50005FEA010C02BF84460146002043F0B64321
:100B600008BFA3F18053A3F50003BCFA8CF2083A46
:100B7000A3EBC25310DB01FA02FC634400FA02FC4F
:100B8000C2F12002BCF1004F20FA02F243EB020056
:100B900008BF20F00100704702F1200201FA02FCB8
:100BA000C2F1200250EA4C0021FA02F243EB0200AB
:100BB00008BF20EADC70704782B00A4B9A6942F0A5
:100BC00020029A619A6902F020020092009A9A69C2
:100BD00042F004029A619B6903F004030193019BB4
:100BE00002B070470010024008B5FFF78DFFFFF715
:100BF0001BFC07A3D3E90023FFF76EFC06A3D3E990
:100C00000023FFF793FDFFF779FE08BDAFF30080E7
:100C10006666666666660A400000000000FEAF4039
:100C200010B50446FFF794FA4FF0FF3382B2214625
:100C3000014801F0D0FF10BD6001002010B504464E
:100C400002F02EFA4FF0FF31204602F07DF82046E8
:100C500002F03CF980B210BD00B589B0B0F5805FFC
:100C600002D2B1F5805F05D31148FFF7D9FF09B073
:100C70005DF804FB4FF48073029300230493059303
:100C8000042306938DF80400000A8DF805008DF802
:100C90000610090A8DF807106B4601AA02A905483B
:100CA00000F0B8FC0028E2D00348FFF7B9FFDEE708
:100CB000CC3D0008F0000020E83D000810B58EB0E3
:100CC0000DF1040C0A4C0FCCACE80F0094E80700BF
:100CD000ACE803008CF8002001A8FFF739FA4FF0C8
:100CE000FF3382B201A9034801F075FF0EB010BDB9
:100CF000F83D00086001002010B58EB00DF1040C25
:100D00000A4C0FCCACE80F0094E80700ACE80300F5
:100D10008CF8002001A8FFF71BFA4FF0FF3382B2D6
:100D200001A9034801F057FF0EB010BD143E0008A2
:100D30006001002008B501F0EDFF08BD72B6FEE7C6
:100D400000B58BB000230593069301220792009310
:100D5000019302930393049308926946054800F0B7
:100D6000A5FB10B90BB05DF804FB0348FFF758FF73
:100D7000FFF7E4FFF0000020303E000810B58EB011
:100D8000044600F0FDFD03460D4A322101A802F0A1
:100D900083FB01A8FFF744FF204600F0F1FD10F0AF
:100DA000040F01D10EB010BD0648FFF739FF2046F1
:100DB00000F0E8FD204600F0FFFBFFF7C1FFF1E780
:100DC0004C3E0008603E000808B50C480C4B036020
:100DD0000823436000238360C3604FF4A0220261B4
:100DE00043610376012242768376C27603774377A6
:100DF00000F0B6FA00B908BDFFF7A0FFF000002030
:100E00000064004000B587B000230293039304936D
:100E100005930093019314484FF08042026040F222
:100E20007F224260836040F2E732C26003618361E7
:100E300001F0F4FC90B94FF48053029302A90A48E0
:100E400001F024FD60B90023009301936946064830
:100E500001F09CFD30B907B05DF804FBFFF76EFFB1
:100E6000FFF76CFFFFF76AFF1801002008B50A487A
:100E70000A4B03604FF4E133436000238360C36097
:100E800003610C2242618361C36101F074FE00B909
:100E900008BDFFF753FF00BF600100200044004081
:100EA00000B585B000230193029303931048114AC3
:100EB00002608360037303754FF46022C261436074
:100EC0000123036102F08CF968B906230193012321
:100ED00002930323039301A9054801F0FBFF20B906
:100EE00005B05DF804FBFFF729FFFFF727FF00BF00
:100EF000900000200024014000B585B0002301933C
:100F0000029303931048114A0260836003730375D0
:100F10004FF46022C26143600123036102F060F973
:100F200068B907230193012302930323039301A9C3
:100F3000054801F0CFFF20B905B05DF804FBFFF7CD
:100F4000FDFEFFF7FBFE00BFC000002000280140AF
:100F500000B595B0282200210DEB020002F094FAB2
:100F60000023059306930793089309930193029333
:100F70000393049302230A9301220E9210220F92EC
:100F800011934FF4601313930AA800F06BFDC8B9D6
:100F90000F23059302210691002307934FF48062EB
:100FA0000892099305A800F08FFF68B90223019306
:100FB0004FF40043039301A801F062F830B915B073
:100FC0005DF804FBFFF7BAFEFFF7B8FEFFF7B6FEC9
:100FD00008B500F00DFDFFF7BBFFFFF7EDFDFFF7D4
:100FE000F3FEFFF70FFFFFF741FFFFF759FFFFF792
:100FF00083FFFFF7A5FE224800F0DEFA20B121486A
:10100000FFF70EFEFFF79AFE40F201411C4800F088
:1010100076FB20B11C48FFF703FEFFF78FFE1B484D
:1010200002F062F91A4802F05FF91A4801F0CCFAAE
:101030000A21002001F05AFE174B1B68012BFBD13F
:101040001248FFF7FBFD154D28801148FFF7F6FD0C
:101050000446134B18802D882846FFF7C5FD114B19
:1010600018602046FFF7C0FD0F4B18602146284648
:10107000FFF7F2FD0A21002001F038FEDCE700BF97
:10108000F00000207C3E0008903E00089000002008
:10109000C000002018010020B80100208C000020B2
:1010A0008E000020A8010020AC010020FEE7FEE732
:1010B000FEE7FEE7FEE770477047704708B500F0AF
:1010C000A9FC08BD08B5024800F035FB08BD00BF0B
:1010D000F000002008B5024800F02DFB08BD00BF5D
:1010E000F000002008B5024800F025FB08BD00BF55
:1010F000F000002008B5024800F01DFB08BD00BF4D
:10110000F000002008B5024801F096FA08BD00BFC3
:101110001801002082B00E4B9A6942F001029A61D8
:101120009A6902F001020092009ADA6942F0805254
:10113000DA61DB6903F080530193019B054A536830
:1011400023F0E06343F00073536002B0704700BFC8
:10115000001002400000014000B589B00023049354
:101160000593069307930368204A934205D0204ACB
:1011700093421ED009B05DF804FB1E4B9A6942F4FD
:1011800000729A619A6902F400720092009A9A6958
:1011900042F004029A619B6903F004030193019BEE
:1011A000402304930323059304A9134801F060F836
:1011B000E0E7104B9A6942F480629A619A6902F4FE
:1011C00080620292029A9A6942F004029A619B69D3
:1011D00003F004030393039B8023049303230593E9
:1011E00004A9054801F044F8C4E700BF0024014009
:1011F00000280140001002400008014030B587B0CF
:10120000002302930393049305930268264B9A42AA
:1012100001D007B030BD03F5D633DA6942F0007271
:10122000DA61DA6902F000720092009A9A6942F07B
:1012300004029A619B6903F004030193019B4FF43C
:1012400000630293194D02A9284601F011F84FF4EA
:1012500080530293022403940323059302A9284692
:1012600001F006F800222146132001F025F9132091
:1012700001F05AF900222146142001F01DF9142032
:1012800001F052F900222146152001F015F9152030
:1012900001F04AF900222146162001F00DF916202E
:1012A00001F042F9B5E700BF0064004000080140CA
:1012B0000368B3F1804F00D0704700B583B003F5E9
:1012C0000433DA6942F00102DA61DB6903F00103F9
:1012D0000193019B002201211C2001F0EDF81C204C
:1012E00001F022F903B05DF804FB000010B586B0F0
:1012F000002302930393049305930268164B9A42CA
:1013000001D006B010BD03F5E633DA6942F40032CD
:10131000DA61DA6902F400320092009A9A6942F0C6
:1013200004029A619B6903F004030193019B042367
:1013300002930223039303230593084C02A920463A
:1013400000F096FF0823029300230393049302A95D
:10135000204600F08DFFD4E7004400400008014023
:10136000002800F0A18038B5044690F82030D3B1B1
:101370002268136843F00103136000F057FB054631
:1013800023685A6812F0010F10D100F04FFB401B88
:101390000A28F5D9636A43F400336362052384F8AD
:1013A0002030012038BDFFF729FFE1E71A6822F05D
:1013B00002021A6000F03AFB054623685A6812F0F0
:1013C000020F0DD000F032FB401B0A28F5D9636AEA
:1013D00043F400336362052384F820300120E1E701
:1013E000227E012A3DD01A6822F080021A60637EB4
:1013F000012B3BD02268136823F040031360A37EC7
:10140000012B39D02268136823F020031360E37E98
:10141000012B37D02268136843F010031360237F39
:10142000012B35D02268136823F008031360637F13
:10143000012B33D02268136823F004031360A368E0
:10144000E268134322691343626913436268013AF5
:1014500021681343CB6100206062012384F82030AF
:10146000A0E71A6842F080021A60C0E72268136899
:1014700043F040031360C2E72268136843F020037F
:101480001360C4E72268136823F010031360C6E7F3
:101490002268136843F008031360C8E722681368E2
:1014A00043F004031360CAE701207047026890F814
:1014B0002030013BDBB2012B05D9436A43F4802382
:1014C00043620120704710B5D2F8003243F00103A7
:1014D000C2F800324B6903F01F03012000FA03F346
:1014E000D2F81C026FEA030C20EA0300C2F81C02C7
:1014F000C869C0B9D2F80C020CEA0000C2F80C02AC
:101500008C884869D1F80CE044EA0E44483042F82F
:1015100030400C884869D1F808E044EA0E4448306D
:1015200002EBC0004460C86901281AD0886988BBF2
:10153000D2F804020CEA0000C2F80402086978BB81
:10154000D2F814020CEA0000C2F81402096A012958
:101550002CD0D2F8003223F00103C2F80032002070
:1015600010BDD2F80C021843C2F80C028C884869EE
:10157000D1F800E044EA0E44483042F830408C890B
:101580004869D1F808E044EA0E44483002EBC00054
:101590004460CBE7D2F804021843C2F80402CDE756
:1015A000D2F814021843C2F81402CFE7D2F81C1282
:1015B0000B43C2F81C32CCE770B5044690F82050BB
:1015C000EDB2012D06D0436A43F4002343620125A6
:1015D000284670BD022380F820300268136823F08B
:1015E0000103136000F022FA064623685B6813F0DB
:1015F000010F0CD000F01AFA831B0A2BF5D9636A8D
:1016000043F400336362052384F82030E0E70025CB
:101610006562DDE730B590F820C00468A4680CF17D
:10162000FF3C5FFA8CFCBCF1010F62D814F0E05F64
:1016300059D0C4F3016C012404FA0CF41C608B68CB
:10164000002B3DD10D68CB68046843EA45550CF189
:1016500018031B01E55003680C690CF1180E03EB2D
:101660000E135C600B7D012B35D0D17993791B046F
:1016700043EA0163517943EA012314790168234362
:1016800001EB0C11C1F88C31D17893781B0443EA3B
:101690000163517843EA0123117802680B4302EB9E
:1016A0000C12C2F8883102680CF1180C4FEA0C1CBD
:1016B00052F80C3043F0010342F80C3000201DE0DA
:1016C0004C6843EAC403CC6823430CF1180424019A
:1016D00005682B51BFE7036803EB0E13596841F40B
:1016E00080715960C1E7436A43F4001343620120EB
:1016F00004E0436A43F480234362012030BD90F844
:101700002030013BDBB2012B05D9436A43F480232F
:1017100043620120704702685369194351610020F8
:101720007047704770477047704770477047704701
:101730007047704770472DE9F84F054603685C69AC
:10174000D3F804809F68D3F80CB0D3F810A0D3F876
:10175000189014F001063BD017F0010616D00122B4
:101760009A6017F0020F08D117F0040F0CD117F090
:10177000080606D04FF4805608E0FFF7D2FF002697
:1017800004E0FFF7CFFF01E04FF4006617F4807F1D
:101790000DD02B684FF480729A6017F4007F40F0F0
:1017A000868017F4806F00F0868046F4005617F4A8
:1017B000803F0DD02B684FF480329A6017F4003FC1
:1017C00040F0838017F4802F00F0838046F40046B9
:1017D00014F0080F07D01BF0100F04D046F4007669
:1017E0002B681022DA6014F0040F02D01BF0080FEF
:1017F00079D114F0020F04D02B68DB6813F0030FCB
:1018000078D114F0400F07D01AF0100F04D046F42E
:1018100080662B6810221A6114F0200F02D01AF093
:10182000080F6BD114F0100F04D02B681B6913F054
:10183000030F6AD114F4003F02D018F0100F68D1E2
:1018400014F4803F02D018F0080F69D114F4004F4F
:101850007AD018F0040F74D014F4807F04D019F0FB
:10186000010F01D046F0010614F4007F04D019F0F6
:10187000020F01D046F0020614F4806F04D019F074
:10188000040F01D046F0040614F4006F59D019F08B
:10189000700956D0B9F1400F65D058D8B9F1200F72
:1018A0005ED0B9F1300F42D146F0200644E0284620
:1018B000FFF704FA7BE717F4006F02D046F4804686
:1018C00075E72846FFF72FFF71E72846FFF714FA60
:1018D0007EE717F4002F02D046F4803678E72846DA
:1018E000FFF722FF74E72B680822DA602846FFF72B
:1018F0001DFF7EE72846FFF718FF82E72B680822C6
:101900001A612846FFF714FF8CE72846FFF70FFF00
:1019100090E72B6810225A602846FFF70AFF8FE7EE
:101920002B6808225A602846FFF704FF8EE7B9F1BA
:10193000100F01D146F008062A68936923F070035E
:1019400093612B6804225A609EB9BDE8F88FB9F103
:10195000500F0BD0B9F1600FEED146F48076EBE773
:1019600046F01006E8E746F04006E5E746F0800658
:10197000E2E76B6A1E436E622846FFF7FFF9E4E771
:10198000406A704790F82030013BDBB2012B05D94B
:10199000436A43F48023436201207047002343627B
:1019A0001846704710B504460E4B18784FF47A73FA
:1019B000B3FBF0F30C4A1068B0FBF3F000F0C2FD8B
:1019C00068B90F2C01D901200AE0002221464FF00E
:1019D000FF3000F071FD054B1C60002000E001208D
:1019E00010BD00BF000000200800002004000020FF
:1019F00008B5074A136843F010031360032000F092
:101A000049FD0F20FFF7CEFFFFF784FB002008BD44
:101A100000200240034A1168034B1B780B441360FB
:101A2000704700BFB001002000000020014B186883
:101A3000704700BFB001002082B0084B1B68084A05
:101A4000A2FB03235B0A00FB03F3019300BF019B8E
:101A50005A1E0192002BF9D102B0704708000020F5
:101A6000D34D6210002800F0F18170B582B00446B9
:101A7000036813F0010F2CD0994B5B6803F00C0343
:101A8000042B1DD0964B5B6803F00C03082B12D07F
:101A90006368B3F5803F41D0002B55D103F18043FB
:101AA00003F504331A6822F480321A601A6822F4AB
:101AB00080221A6037E08A4B5B6813F4803FE7D0DE
:101AC000874B1B6813F4003F03D06368002B00F0C2
:101AD000BF81236813F0020F75D0814B5B6813F050
:101AE0000C0F5FD07E4B5B6803F00C03082B54D0C7
:101AF0002369002B00F08A807A4B01221A60FFF7DD
:101B000095FF0546764B1B6813F0020F75D1FFF762
:101B10008DFF401B0228F5D903209EE1704A13680F
:101B200043F480331360636843B3FFF77FFF0546D8
:101B30006B4B1B6813F4003FCBD1FFF777FF401BC3
:101B40006428F5D9032088E1B3F5A02F09D0644BB0
:101B50001A6822F480321A601A6822F480221A600D
:101B6000E1E703F18043A3F53C331A6842F4802295
:101B70001A601A6842F480321A60D4E7FFF756FF01
:101B80000546574B1B6813F4003FA2D0FFF74EFFEA
:101B9000401B6428F5D903205FE1514B5B6813F4C7
:101BA000803FA5D14E4B1B6813F0020F03D0236971
:101BB000012B40F04F814A4A136823F0F803616912
:101BC00043EAC1031360236813F0080F33D0A369FD
:101BD000002B5CD0434B0122C3F88024FFF726FF83
:101BE00005463F4B5B6A13F0020F21D1FFF71EFF42
:101BF000401B0228F5D903202FE1394A136823F04E
:101C0000F803616943EAC1031360DCE7354B002246
:101C10001A60FFF70BFF0546314B1B6813F0020FEC
:101C2000D1D0FFF703FF401B0228F5D9032014E1B0
:101C30000120FFF701FF236813F0040F00F09680E6
:101C4000274BDB6913F0805F34D1254BDA6942F012
:101C50008052DA61DB6903F080530193019B012517
:101C6000214B1B6813F4807F26D0E368012B3DD005
:101C7000002B53D103F1804303F504331A6A22F099
:101C800001021A621A6A22F004021A6233E0154B4A
:101C90000022C3F88024FFF7C9FE0546104B5B6A9B
:101CA00013F0020FC7D0FFF7C1FE401B0228F5D981
:101CB0000320D2E00025D3E70B4A136843F4807376
:101CC0001360FFF7B3FE0646074B1B6813F4807FD3
:101CD000CBD1FFF7ABFE801B6428F5D90320BCE015
:101CE0000010024000004242007000405F4A136A48
:101CF00043F001031362E36833B3FFF797FE064630
:101D00005A4B1B6A13F0020F2FD1FFF78FFE801B77
:101D100041F288339842F3D903209EE0052B09D085
:101D2000524B1A6A22F001021A621A6A22F0040265
:101D30001A62E0E74D4B1A6A42F004021A621A6A0C
:101D400042F001021A62D6E7FFF770FE0646474BE3
:101D50001B6A13F0020F08D0FFF768FE801B41F2E8
:101D600088339842F3D9032077E0E5B9E369002B83
:101D700072D03E4A526802F00C02082A56D0022B5A
:101D800017D03B4B00221A66FFF750FE0446374B34
:101D90001B6813F0007F47D0FFF748FE001B0228A6
:101DA000F5D9032059E0314AD36923F08053D36138
:101DB000DCE72F4B00221A66FFF738FE05462B4B57
:101DC0001B6813F0007F06D0FFF730FE401B02288F
:101DD000F5D9032041E0236AB3F5803F1AD02349A7
:101DE0004B6823F47413226A606A024313434B6006
:101DF0001F4B01221A66FFF719FE04461B4B1B6896
:101E000013F0007F0ED1FFF711FE001B0228F5D959
:101E1000032022E0154A536823F40033A1680B43E2
:101E20005360DCE7002018E0002016E0012B16D0FC
:101E30000E4B5B6803F48031226A914211D103F4A6
:101E40007013626A93420ED1002006E001207047B1
:101E5000012002E0012000E0002002B070BD01205E
:101E6000FBE70120F9E70120F7E700BF001002407F
:101E7000000042420F4B5B6803F00C02082A01D0BD
:101E80000D487047C3F383420C49885C13F4803FCC
:101E90000BD0084B5B68C3F34043094AD35C064A46
:101EA00002FB00F0B0FBF3F07047064B03FB00F0C1
:101EB000704700BF0010024000127A00AC3E0008DC
:101EC000BC3E000800093D00002800F0A08070B56D
:101ED0000D460446524B1B6803F007038B420BD29E
:101EE0004F4A136823F007030B431360136803F092
:101EF00007038B4240F08D80236813F0020F17D048
:101F000013F0040F04D0474A536843F4E06353606E
:101F1000236813F0080F04D0424A536843F4605317
:101F20005360404A536823F0F003A1680B435360A9
:101F3000236813F0010F31D06368012B20D0022BEE
:101F400025D0384A126812F0020F64D035494A6829
:101F500022F0030213434B60FFF768FD0646314B46
:101F60005B6803F00C036268B3EB820F16D0FFF7D7
:101F70005DFD801B41F288339842F0D9032045E093
:101F8000284A126812F4003FE0D101203EE0254AC1
:101F9000126812F0007FD9D1012037E0204B1B6876
:101FA00003F00703AB420AD91D4A136823F0070365
:101FB0002B431360136803F00703AB422DD1236852
:101FC00013F0040F06D0174A536823F4E063E16866
:101FD0000B435360236813F0080F07D0114A53686E
:101FE00023F46053216943EAC1035360FFF742FFC2
:101FF0000C4B5B68C3F303130B4AD35CD8400B4B09
:1020000018600B4B1868FFF7CDFC002070BD012055
:1020100070470120FAE70120F8E70120F6E700BF4A
:102020000020024000100240D43E000808000020BA
:1020300004000020014B1868704700BF0800002012
:1020400008B5FFF7F7FF044B5B68C3F30223034AAD
:10205000D35CD84008BD00BF00100240E43E000839
:1020600008B5FFF7E7FF044B5B68C3F3C223034ADD
:10207000D35CD84008BD00BF00100240E43E000819
:1020800070B582B00446036813F0010F36D03F4BA1
:10209000DB6913F0805F49D13C4BDA6942F0805232
:1020A000DA61DB6903F080530193019B0125384B12
:1020B0001B6813F4807F3BD0344B1B6A13F44073CE
:1020C00013D0626802F440729A420ED02F4A136A0B
:1020D00023F440702F490126C1F840640026C1F85E
:1020E0004064106213F0010F36D1284A136A23F4BA
:1020F000407361680B431362002D3ED1236813F0D7
:10210000020F06D0214A536823F44043A1680B43D1
:102110005360236813F0100F34D01C4A536823F423
:102120008003E1680B43536000202CE00025BEE7EC
:10213000174A136843F480731360FFF777FC064671
:10214000134B1B6813F4807FB6D1FFF76FFC801B25
:102150006428F5D9032016E0FFF768FC06460B4B10
:102160001B6A13F0020FC0D1FFF760FC801B41F225
:1021700088339842F3D9032005E0D36923F08053D4
:10218000D361BBE7002002B070BD00BF0010024069
:10219000007000400000424208B502284ED01028CE
:1021A00003D0012828D0002008BD2B4B5A6818689E
:1021B00010F08070F8D0C2F383432849C85C12F451
:1021C000803F15D0244B5B68C3F34043244AD25C64
:1021D000244BB3FBF2F303FB00F01F4B5B6813F4DB
:1021E000800FE1D14000204BA3FB00304008DBE72B
:1021F0001E4B03FB00F0F0E7174B1B6A40F2023264
:102200001A40B2F5817F24D003F44073B3F5007F08
:1022100004D0B3F5407F09D00020C5E70E4A526ACA
:1022200012F0020FF5D049F64040BDE70A4B18689E
:1022300010F40030B8D04FF22440B5E7FFF710FF9C
:10224000054B5B68C3F3813301335B00B0FBF3F0F4
:10225000AAE74FF40040A7E700100240C03E000884
:10226000D03E000800127A00ABAAAAAA00093D00DD
:1022700070B582B00024A446A6E0804DAA4210D0DA
:1022800007D97F4DAA420CD005F58035AA4208D067
:1022900013E0A5F58015AA4203D005F57025AA42E2
:1022A00007D18A68002A58D0012A51D043610824F6
:1022B00003E0A5F58015AA42F3D0BEF1FF0F4ED87A
:1022C0000646BEF1FF0F4CD84FEA8C0233680F254B
:1022D000954023EA050304FA02F2134333604B6886
:1022E00013F0805F6ED0674B9A6942F001029A61E9
:1022F0009B6903F001030193019B4FEA9C02951C2B
:10230000614B53F825600CF003039D000F23AB4095
:1023100026EA03065D4B984229D003F58063984274
:1023200000F08E8003F58063984200F08B8003F507
:102330008063984219D004231AE0CC68BDE7CC68CA
:102340000434BAE7CC680834B7E7CC680C34B4E797
:1023500003610824B1E70024AFE70424ADE7061DBC
:10236000AFE7ACF108029200B0E7032300E00023DE
:10237000AB4033430232444D45F822304B6813F4EE
:10238000801F61D0424A936843EA0E0393604B6812
:1023900013F4001F5ED03E4AD36843EA0E03D360B5
:1023A0004B6813F4003F5BD0394A536843EA0E038D
:1023B00053604B6813F4803F58D0354A136843EAA2
:1023C0000E0313600CF1010C0A6832FA0CF353D0BF
:1023D000012303FA0CF302EA030E33EA0202F1D1FD
:1023E0004A68122A3FF649AF122A3FF666AF01A5A6
:1023F00055F822F0A32200083B23000845230008DB
:1024000057230008BB220008BB220008BB2200089B
:10241000BB220008BB220008BB220008BB22000828
:10242000BB220008BB220008BB220008BB22000818
:10243000BB220008BB2200083F2300084B230008F2
:10244000012395E7022393E7114A936823EA0E03D9
:1024500093609CE70E4AD36823EA0E03D3609FE79C
:102460000B4A536823EA0E035360A2E7084A136835
:1024700023EA0E031360A5E702B070BD000022102E
:10248000000031100010024000000140000801402F
:1024900000040140074AD36823F4E0631B041B0CCB
:1024A000000200F4E060034343F0BF6343F40033F1
:1024B000D360704700ED00E000B5194BDB68C3F353
:1024C0000223C3F1070CBCF1040F28BF4FF0040C2A
:1024D00003F1040EBEF1060F18D9033B4FF0FF3E87
:1024E0000EFA0CFC21EA0C0199400EFA03F322EAE1
:1024F0000303194300280BDB0901C9B200F1604056
:1025000000F5614080F800135DF804FB0023E5E767
:1025100000F00F000901C9B2024B1954F4E700BFE3
:1025200000ED00E014ED00E0002807DB00F01F02E2
:10253000400901239340024A42F82030704700BF0F
:1025400000E100E00138B0F1807F0BD24FF0E023D2
:102550005861054AF02182F8231000209861072273
:102560001A6170470120704700ED00E010B4036A63
:10257000046A24F001040462846924F0F00C4CEA3B
:10258000021223F00A030B438261036210BC7047FE
:1025900010B4036A046A24F010040462846924F409
:1025A000704C4CEA023223F0A00343EA011382612B
:1025B000036210BC7047836823F070030B4343F041
:1025C000070383607047000090F83D30DBB2012BB9
:1025D00027D1022380F83D300268D36843F001031D
:1025E000D3600368114A934210D0B3F1804F0DD0ED
:1025F000A2F59432934209D002F58062934205D04D
:102600001A6842F001021A60002070479A6802F0CE
:102610000702062A07D01A6842F001021A60002059
:102620007047012070470020704700BF002C014018
:10263000704770477047704770B504460368DE689E
:102640001D6915F0020F10D016F0020F0DD06FF0BB
:1026500002021A610123037703689B6913F0030FD9
:102660005ED0FFF7E6FF0023237715F0040F12D0AA
:1026700016F0040F0FD023686FF004021A610223D2
:10268000237723689B6913F4407F4FD02046FFF7E0
:10269000D0FF0023237715F0080F12D016F0080F93
:1026A0000FD023686FF008021A6104232377236890
:1026B000DB6913F0030F40D02046FFF7BAFF002379
:1026C000237715F0100F12D016F0100F0FD02368DB
:1026D0006FF010021A61082323772368DB6913F473
:1026E000407F31D02046FFF7A4FF0023237715F069
:1026F000010F02D016F0010F2DD115F0800F02D07E
:1027000016F0800F2FD115F0400F02D016F0400FB9
:1027100031D115F0200F02D016F0200F33D170BD4B
:10272000FFF786FF2046FFF785FF9CE72046FFF76F
:102730007FFF2046FFF77EFFABE72046FFF778FFDD
:102740002046FFF777FFBAE72046FFF771FF2046E4
:10275000FFF770FFC9E723686FF001021A61204696
:10276000FEF7E8FAC9E723686FF080021A61204695
:1027700000F043F9C7E723686FF040021A61204672
:10278000FFF759FFC5E723686FF020021A61204662
:1027900000F032F9C3E7000003681F4A90420AD0F4
:1027A000B0F1804F07D0A2F59432904203D002F5E9
:1027B0008062904203D123F070034A681343164AA3
:1027C00090420AD0B0F1804F07D0A2F594329042E7
:1027D00003D002F58062904203D123F44073CA68AB
:1027E000134323F080034A69134303608B68C36279
:1027F0000B688362084B98420AD001234361036946
:1028000013F0010F03D0036923F001030361704744
:102810000B690363F1E700BF002C014040B310B522
:10282000044690F83D30F3B1022384F83D30214650
:1028300051F8040BFFF7B0FF012384F8463084F809
:102840003E3084F83F3084F8403084F8413084F8DA
:10285000423084F8433084F8443084F8453084F8BA
:102860003D30002010BD80F83C30FEF721FDDBE755
:102870000120704710B4846824F47F4C42EA03229C
:102880000A4342EA0C02826010BC704790F83C3068
:10289000012B78D010B50446012380F83C30022388
:1028A00080F83D300268936823F47F4323F0770378
:1028B00093600B68602B4CD029D8402B54D00CD996
:1028C000502B22D1CA6849680068FFF74FFE50219B
:1028D0002068FFF770FE002005E0202B0DD009D9FD
:1028E000302B0AD00120012384F83D30002384F8E6
:1028F0003C3010BD0BB1102B05D119462068FFF7F5
:102900005AFE0020EFE70120EDE70120EBE7B3F5E9
:10291000805F34D0B3F5005F0CD1CB684A6889681A
:102920000068FFF7A7FF2268936843F48043936031
:102930000020D8E7702B24D1CB684A6889680068EA
:10294000FFF798FF2268936843F0770393600020B5
:10295000C9E7CA6849680068FFF71AFE6021206865
:10296000FFF729FE0020BEE7CA6849680068FFF744
:10297000FDFD40212068FFF71EFE0020B3E7002088
:10298000B1E70120AFE702207047000090F83C302B
:10299000012B2CD010B4012380F83C30022380F8A6
:1029A0003D3003685A689C6822F0700C0A6842EA5D
:1029B0000C025A6003680F4A93420AD0B3F1804F69
:1029C00007D0A2F59432934203D002F5806293427D
:1029D00004D124F080044A6814439C60012380F8E9
:1029E0003D30002380F83C30184610BC7047022070
:1029F000704700BF002C014070477047026802F129
:102A00000C0353E8003F23F490730C3242E800318A
:102A10000029F3D1026802F1140353E8003F23F0C8
:102A20000103143242E800310029F3D1036B012B7A
:102A300005D0202380F842300023036370470268EA
:102A400002F10C0353E8003F23F010030C3242E87C
:102A500000310029F3D1ECE710B504460268136990
:102A600023F44053C1680B43136183680269134325
:102A700042691A430168CB6823F4B05323F00C0376
:102A80001343CB600268536923F4407381690B439D
:102A900053610268134B9A4220D0FFF7D1FA0246E5
:102AA00002EB820202EB820263689B00B2FBF3F24C
:102AB0000D48A0FB02314909642303FB11231B01CC
:102AC0003233A0FB03235B0903F0F00202EB011297
:102AD00003F00F03216813448B6010BDFFF7C0FAA9
:102AE0000246DDE7003801401F85EB512DE9F04338
:102AF00083B005460E4617469946DDF828802C68B7
:102B0000246836EA04030CBF4FF0010C4FF0000CB0
:102B1000BC4528D1B8F1FF3FF1D0FEF787FFA0EB0D
:102B20000900404523D8B8F1000F22D02B68DA689D
:102B300012F0040FE3D0802EE1D0402EDFD01A68CF
:102B400012F0080FDBD0002401941A6801925B6830
:102B50000193019B2846FFF751FF08236B6485F81A
:102B60004040012000E0002003B0BDE8F0830320D6
:102B7000FAE70320F8E760B310B5044690F8413057
:102B800013B3242384F841302268D36823F400531C
:102B9000D3602046FFF760FF2268136923F4904357
:102BA00013612268536923F02A0353612268D368B2
:102BB00043F40053D36000206064202384F8413044
:102BC00084F84230606310BD80F84030FEF78EFB21
:102BD000D7E7012070472DE9F04182B01E4690F8FA
:102BE0004130DBB2202B56D104460D4690460029D9
:102BF00055D00AB901204FE000234364212380F817
:102C00004130FEF713FF0746A4F82480A4F826807D
:102C1000A368B3F5805F02D04FF0000814E0236989
:102C20002BB34FF000080FE0202384F8413003203D
:102C300032E038F8023B2268C3F308035360E28CA9
:102C400092B2013A92B2E284E38C9BB293B10096C5
:102C50003B46002280212046FFF748FF0028E3D1B1
:102C6000002DE6D015F8012B23685A60E7E7A84647
:102C70000025E9E700963B46002240212046FFF769
:102C800035FF18B9202384F8413005E0202384F86B
:102C90004130032000E0022002B0BDE8F0810120B5
:102CA000FAE7704710B503460C4A0D490D48006815
:102CB00040B10C4800680344521A934206D8094AAE
:102CC000136010BD0748084C0460F2E700F0B2FB47
:102CD0000C2303604FF0FF30F3E700BF00500020EB
:102CE00000040000B401002018020020064B83FB02
:102CF0000123C917C1EBA301044B43F82010044B77
:102D0000002243F82020704767666666E0010020D5
:102D1000B8010020002300E00133092B0FDC084A32
:102D200052F82320002AF7DD013A054941F8232013
:102D3000002AF1DC034A012142F82310ECE7704736
:102D4000E0010020B8010020F0B583B005460C4634
:102D500000230193FEF76AFE2B689A6812F4807FC5
:102D600023D107465A6812F4807F03D1DB6A13F43B
:102D7000700F29D0504B1E680220FFF70DFAB6FBEA
:102D8000F0F62B6819694D4A114236D1D96802F123
:102D90005C42114231D11969494A114240D1DA6885
:102DA000484B1A423ED0292041E0AB6A43F0200351
:102DB000AB62002385F82430012003B0F0BD2B68FE
:102DC0001B6813F0020F0FD02B681B6813F0020F63
:102DD0004FD1B4F1FF3FF7D0002CF0D0FEF726FE24
:102DE000C31BA342F0D9EAE7AB6A43F00403AB622A
:102DF000002385F824300320DFE71969304A1142A7
:102E000004D1D96802F16E4211420DD019692E4ADF
:102E10000A405AB9DA682C4B13405BB1FC2006E03B
:102E2000292004E0142002E0542000E0FC2000FBF4
:102E300006F607E05420FAE7019BB34210D3019B4A
:102E400001330193019BB34213D2B4F1FF3FF6D09B
:102E5000002CF1D0FEF7EAFDC01BA042EFD9EBE752
:102E6000AB6A43F00403AB62002385F824300320EF
:102E7000A3E72B686FF012021A60AB6A43F4007389
:102E8000AB622B689B6803F46023B3F5602F01D01D
:102E9000002092E7287B60B9AB6A23F48073AB62B1
:102EA000AB6A13F4805F88D1AB6A43F00103AB6275
:102EB00083E7002081E700BF080000202449922416
:102EC0009224491292244900499224000368D86C44
:102ED0007047000030B482B00022019290F82420A4
:102EE000012A00F091800346012280F824204A68DC
:102EF000062A2DD80468606B02EB8202053A4FF077
:102F00001F0C0CFA02FC20EA0C000D6805FA02F214
:102F1000024362630A68092A3AD91C68E06802EB36
:102F200042021E3A4FF0070C0CFA02FC20EA0C0099
:102F30008D6805FA02F20243E2600A68103A012A3B
:102F400036D90020002283F8242002B030BC70471C
:102F50000C2A0ED80568286B02EB8202233A1F2444
:102F6000944020EA04000C6804FA02F202432A6347
:102F7000D0E70568E86A02EB8202413A1F249440D8
:102F800020EA04000C6804FA02F20243EA62C1E794
:102F90001C68206902EB42024FF0070C0CFA02FC9D
:102FA00020EA0C008D6805FA02F202432261C4E7B0
:102FB0001A681648824205D09A6A42F020029A6244
:102FC0000120BFE7906810F4000F1BD1906840F417
:102FD000000090600A68102A01D00020B2E70C4A75
:102FE00012680C49A1FB0212920C02EB8202520001
:102FF000019202E0019A013A0192019A002AF9D164
:1030000000209FE700209DE702209EE7002401406A
:103010000800002083DE1B4330B583B000230193FA
:1030200003689A6812F0010F33D104469A6842F09F
:1030300001029A60184B1B68184AA2FB03239B0CE1
:10304000019302E0019B013B0193019B002BF9D10D
:10305000FEF7ECFC054623689B6813F0010F16D1C0
:10306000FEF7E4FC431B022BF5D923689B6813F0A1
:10307000010FF0D1A36A43F01003A362E36A43F0A7
:103080000103E362002384F82430012002E00020E1
:1030900000E0002003B030BD0800002083DE1B43A9
:1030A00090F82430012B68D010B50446012380F835
:1030B0002430FFF7B1FF00285BD1A36A23F44073EB
:1030C00023F0010343F48073A36223682C4A9342E4
:1030D00027D0A26A22F48012A2625A6812F4806F8A
:1030E00005D0A26A22F4405242F48052A262A26A3F
:1030F00012F4805F2BD0E26A22F00602E262002224
:1031000084F824206FF002021A6023689A6802F49F
:103110006022B2F5602F1DD09A6842F480129A6046
:103120002AE0A2F58062526812F4702FD1D0A26A10
:1031300042F48012A262134A526812F4806FD6D011
:10314000A26A22F4405242F48052A262CFE70022E7
:10315000E262D4E70A4A934204D09A6842F4A00299
:103160009A6009E0A2F58062526812F4702FD3D100
:10317000F3E7002384F8243010BD0220704700BF1D
:10318000002801400024014038B503689A6812F015
:10319000010F01D1002038BD04469A6822F00102D7
:1031A0009A60FEF743FC054623689B6813F0010F05
:1031B00013D0FEF73BFC431B022BF5D923689B6819
:1031C00013F0010FF0D0A36A43F01003A362E36A87
:1031D00043F00103E3620120DDE70020DBE70000AC
:1031E00000287BD070B50446836A002B4DD0204662
:1031F000FFF7CAFFA36A13F0100369D1002867D153
:10320000A26A22F4885222F0020242F00202A26272
:103210006268E1690A43217B42EA4102A568B5F58B
:10322000807F02D0012D36D01D46267D012E35D05F
:103230002668716821F46941294371602568AE6888
:10324000274931401143A960A168B1F5807F01D0C1
:10325000012902D12369013B1B052568E96A21F494
:1032600070010B43EB62236899681E4B0B409A4236
:1032700025D0A36A23F0120343F01003A362E36A8C
:1032800043F00103E362012027E0C36280F82430A9
:10329000FDF762FFABE74FF48075C6E731B9A1696E
:1032A000013945EA413141F40065C1E7A16A41F0C5
:1032B0002001A162E16A41F00101E162B8E7002367
:1032C000E362A36A23F0030343F00103A36204E073
:1032D000A36A43F01003A362012070BD0120704770
:1032E000FDF7E1FFFE0E1FFF70B582B000230193D2
:1032F00090F82430012B72D00446012380F824304A
:10330000FFF742FF2046FFF787FE054628B100235E
:1033100084F82430284602B070BDA36A23F4885391
:1033200023F0020343F00203A3622E4B1E68022027
:10333000FEF732FFB6FBF0F67600019602E0019B45
:10334000013B0193019B002BF9D12268936843F064
:1033500008039360FEF76AFB064623689A6812F03A
:10336000080F14D0FEF762FB801B0A28F5D92368EA
:103370009B6813F0080FF0D0A36A23F0120343F008
:103380001003A362002384F824300125C2E79A6861
:1033900042F004029A60FEF749FB064623689B68E8
:1033A00013F0040F14D0FEF741FB801B0A28F5D957
:1033B00023689B6813F0040FF0D0A36A23F0120374
:1033C00043F01003A362002384F824300125A1E711
:1033D000A36A23F0030343F00103A36297E70225E6
:1033E00098E700BF08000020FFF75BFC0B480C4982
:1033F0000C4A002302E0D458C4500433C4188C4251
:10340000F9D3094A094C002301E013600432A242B7
:10341000FBD300F015F8FDF7DBFD7047000000203E
:1034200070000020283F00087000002018020020D3
:10343000FEE70000014B1868704700BF0C00002039
:1034400070B500260C4D0D4C641BA410A64209D18A
:1034500000F0B0FC00260A4D0A4C641BA410A642E2
:1034600005D170BD55F8043B98470136EEE755F895
:10347000043B98470136F2E7203F0008203F000850
:10348000203F0008243F000803460244934200D135
:10349000704703F8011BF9E70CB430B5174B0C1E4D
:1034A0001D689DB008DA8B234FF0FF302B601DB0F4
:1034B000BDE8304002B070474FF40273ADF81430ED
:1034C0000CBF234604F1FF33049307934FF6FF73B9
:1034D00002900690ADF81630284621AB209A02A93A
:1034E000019300F069F8431CBCBF8B232B60002CB8
:1034F000DDD00022029B1A70D9E700BF0C0000202B
:103500002DE9F0478E6882469E420C4690461F4643
:1035100038D88A8912F4906F32D02568096901334E
:10352000A5EB010965694B4405EB450505EBD57530
:103530006D109D4238BF1D46530531D5294600F018
:103540006FFB064650B90C234FF0FF30CAF800302D
:10355000A38943F04003A381BDE8F0874A4621696F
:1035600000F0CEFAA38923F4906343F08003A38193
:1035700026614E4426603E466561A5EB0905A560BF
:10358000BE4200D93E4632464146206800F0C6FAA7
:10359000A36800209B1BA360236833442360DBE700
:1035A0002A4600F0B1FB06460028E1D150462169C9
:1035B00000F0CEFAC7E700002DE9F04F98468B895E
:1035C00007461B060D4614469DB00ED50B6963B920
:1035D000402100F025FB2860286120B90C233B60C6
:1035E0004FF0FF30D1E040236B610023099320238B
:1035F0008DF8293030234FF00109CDF80C80DFF829
:10360000A4818DF82A3023469A4613F8012B0AB17B
:10361000252AF9D1BAEB040B0BD05B46224629468A
:103620003846FFF76DFF013000F0AA80099A5A442E
:1036300009929AF80030002B00F0A28000234FF08E
:10364000FF32CDE905230AF1010A049307938DF8AF
:1036500053301A935446052214F8011B514800F0C8
:1036600041FA049AD8B9D00644BF20238DF85330CC
:10367000110744BF2B238DF853309AF800302A2BC2
:1036800015D0544600204FF00A0C079A214611F835
:10369000013B303B092B4ED9B0B1079214E0A0EBAF
:1036A000080309FA03F31343A2460493D2E7039BEA
:1036B000191D1B680391002BBBBF5B4242F0020245
:1036C00007930793B8BF049223782E2B0CD163780D
:1036D0002A2B35D1039B02341A1D1B680392002B41
:1036E000B8BF4FF0FF330593DFF8BCA0032250466C
:1036F000217800F0F7F940B14023A0EB0A0003FA6B
:1037000000F0049B01340343049314F8011B0622C8
:1037100026488DF8281000F0E5F9002838D0244B11
:103720001BBB039B073323F0070308330393099B59
:103730003344099367E70C4601200CFB0232A5E7EE
:1037400000234FF00A0C194601340593204610F867
:10375000012B303A092A03D9002BC5D00591C3E7C4
:10376000044601230CFB0121F0E703AB00932A463A
:103770003846104B04A9AFF30080421C0646D6D150
:10378000AB895B063FF52CAF09981DB0BDE8F08F03
:1037900003AB00932A463846064B04A900F07CF898
:1037A000EBE700BFEC3E0008F23E0008F63E0008E2
:1037B00000000000013500082DE9F0471646994643
:1037C0008A680B6907469342B8BF1346336091F885
:1037D00043200C46DDF820800AB1013333602368B2
:1037E000990642BF336802333360256815F0060539
:1037F00006D104F1190AE36832689B1AAB4228DC4F
:1038000094F84320131E226818BF012392062DD47A
:103810004946384604F14302C047013020D02368AE
:10382000E56803F00603042B18BF002532684FF04B
:103830000006A36808BFAD1A226908BF25EAE5752E
:103840009342C4BF9B1AED181A34B5421AD1002016
:1038500008E00123524649463846C047013003D1AB
:103860004FF0FF30BDE8F0870135C4E73020E118A4
:1038700081F843005A1C94F845102244023382F820
:103880004310C5E70123224649463846C047013068
:10389000E6D00136D9E700002DE9FF470F7E9146BB
:1038A000782F80460C469A460C9D01F1430207D8BA
:1038B000622F0AD8002F00F0D980582F00F0A48082
:1038C00004F1420584F842703AE0A7F16303152B36
:1038D000F6D801A151F823F0313900084539000824
:1038E000C1380008C1380008C1380008C1380008D4
:1038F00045390008C1380008C1380008C13800083F
:10390000C1380008533A000875390008353A0008F4
:10391000C1380008C1380008753A0008C1380008ED
:1039200075390008C1380008C13800083D3A000860
:103930002B681A1D1B682A6004F1420584F8423086
:103940000123A4E020682968060601F104030AD5D2
:103950000E682B60002E03DA2D23764284F8433064
:103960000A235E4819E00E6810F0400F2B6018BF64
:1039700036B2EFE72B682068191D2960010601D5D2
:103980001E6802E04606FBD51E886F2F0CBF082379
:103990000A235248002184F843106568002DA8BF0F
:1039A0002168A560A4BF21F0040121600EB9002D9B
:1039B0004DD01546B6FBF3F103FB1167C75D05F863
:1039C000017D3746BB420E46F4D9082B0BD1236844
:1039D000DE0708D5236961689942DEBF302305F808
:1039E000013C05F1FF35521B22614B462146404602
:1039F000CDF800A003AAFFF7DFFE01304CD14FF055
:103A0000FF3004B0BDE8F087344881F8457029687C
:103A1000236851F8046B29601D0614D5DF0744BFE5
:103A200043F0200323601EB9236823F020032360A2
:103A30001023AFE7236843F020032360782328484E
:103A400084F84530E3E7590648BFB6B2E6E71546C5
:103A5000BBE72B682668181D6169286035061B685E
:103A600001D5196002E07006FBD5198000231546C8
:103A70002361BAE72B6800211A1D2A601D6862685D
:103A8000284600F02FF808B1401B6060636823618E
:103A9000002384F84330A8E72A4649464046236974
:103AA000D0470130ABD023689B0713D4E068039B59
:103AB0009842B8BF1846A4E701233246494640461B
:103AC000D04701309BD00135E36803995B1AAB42C4
:103AD000F2DCEBE7002504F11906F5E7FD3E0008EE
:103AE0000E3F0008034610B5C9B20244934218467F
:103AF00001D1002003E0047801338C42F6D110BDDF
:103B00000A44914200F1FF3300D1704710B511F81B
:103B1000014B914203F8014FF9D110BD884210B515
:103B200001EB020402D98442234607D8431EA14276
:103B300008D011F8012B03F8012FF8E701460244E1
:103B40008A4200D110BD13F8014D02F8014DF7E78C
:103B500038B50546002940D051F8043C0C1F002B15
:103B6000B8BFE41800F010F91C4A136833B9636059
:103B700014602846BDE8384000F00CB9A34208D9CB
:103B8000206821188B4201BF19685B680918216001
:103B9000EDE71A465B680BB1A342FAD911685018D9
:103BA000A0420BD120680144501883421160E0D13B
:103BB00018685B68014411605360DAE702D90C238E
:103BC0002B60D6E7206821188B4201BF19685B681B
:103BD0000918216063605460CBE738BD08020020FB
:103BE00070B50E4E0C463168054611B900F0BCF8B0
:103BF00030602146284600F0B7F8431C0AD0C41CA8
:103C000024F00304A04207D0211A284600F0ACF8A3
:103C1000013001D14FF0FF34204670BD0C0200206E
:103C20002DE9F041CD1C25F0030508350C2D38BFDA
:103C30000C25002D074601DBA94205D90C230026DF
:103C40003B603046BDE8F0812E4E00F09DF83368B1
:103C50001C4634BB29463846FFF7C2FF431C0446C6
:103C60004DD134682646002E40D12368314638466F
:103C700004EB030800F078F880453AD12168033559
:103C80006D1A25F0030508350C2D38BF0C25384674
:103C90002946FFF7A5FF01302BD023682B44236072
:103CA0000EE02268521B1ED40B2A16D96119A342BA
:103CB000256018BF5960636808BF316062514B606E
:103CC000384604F10B0600F065F826F00706231DC0
:103CD000F21AB6D09B1BA350B3E76268A3420CBF95
:103CE00032605A60ECE723466468B2E7344676688F
:103CF000B9E70C2338463B6000F04CF8A1E725609B
:103D0000DEE700BF080200202DE9F041804614469E
:103D10000E4621B91146BDE8F041FFF781BF2AB92F
:103D2000FFF716FF25462846BDE8F08100F038F879
:103D30008442074602D8B4EB500F12D821464046C1
:103D4000FFF76EFF05460028EDD0BC422246314603
:103D500028BF3A46FFF7D4FE31464046FFF7F8FE4B
:103D6000E1E73546DFE7000038B50023054D04469E
:103D700008462B60FEF796FF431C02D12B6803B167
:103D8000236038BD10020020014800F011B800BFC8
:103D900014020020014800F00CB800BF14020020FB
:103DA00051F8043C181F002BBCBF0B58C0187047BB
:103DB00070477047F8B500BFF8BC08BC9E46704716
:0C3DC000F8B500BFF8BC08BC9E46704778
:103DCC004572726F723A20496E76616C6964205448
:103DDC0050532076616C7565730D0A0043414E207B
:103DEC005458204661696C65640D0A004D65737307
:103DFC00616765205472616E736D69747465643AA1
:103E0C00204D310A000000004D6573736167652019
:103E1C005472616E736D69747465643A204D320A24
:103E2C000000000043414E2046696C7465722043CB
:103E3C006F6E666967204661696C65640D0A0000E7
:103E4C0043414E204572726F723A20256C750D0AF3
:103E5C000000000043414E20427573204F66662CD3
:103E6C0020526573657474696E672E2E2E0D0A00D0
:103E7C0043414E205374617274204661696C6564D1
:103E8C000D0A000043414E204E6F746966696361F0
:103E9C0074696F6E204661696C65640D0A000000E0
:103EAC0002030405060708090A0B0C0D0E0F10106F
:103EBC000102000002030405060708090A0B0C0D99
:103ECC000E0F1010010200000000000000000000A6
:103EDC0001020304060708090000000001020304A4
:103EEC00232D302B2000686C4C00656667454647D7
:103EFC00003031323334353637383941424344455A
:103F0C0046003031323334353637383961626364C8
:043F1C0065660000D6
:043F2000350100085F
:043F2400110100087F
:103F2800010000001000000000127A0010000020BC
:103F38000000000000000000000000000000000079
:103F48000000000000000000000000000000000069
:103F58000000000000000000000000000000000059
:103F68000000000000000000000000000000000049
:103F78000000000000000000000000000000000039
:103F88000000000000000000000000000000000029
:04000005080033E9D3
:00000001FF
